:100000000C94E0000C9408010C9408010C94080175
:100010000C9408010C9408010C9408010C9408013C
:100020000C9408010C9408010C9408010C9408012C
:100030000C9408010C9408010C9408010C9408011C
:100040000C943B010C9408010C94F4160C94CE16FD
:100050000C9408010C9408010C9408010C940801FC
:100060000C9462140C94080100407A10F35A00A01A
:10007000724E18090010A5D4E80000E87648170071
:1000800000E40B54020000CA9A3B000000E1F505B1
:10009000000080969800000040420F000000A086FB
:1000A00001000000102700000000E803000000002D
:1000B0006400000000000A000000000001000000D1
:1000C00000002C76D888DC674F0823DFC1DFAE59EB
:1000D000E1B1B796E5E3E453C63AE651997696E87E
:1000E000E6C28426EB898C9B62ED407C6FFCEFBC02
:1000F0009C9F40F2BAA56FA5F490055A2AF75C932D
:100100006B6CF9676DC11BFCE0E40D47FEF520E662
:10011000B500D0ED902E0300943577050080841E45
:10012000080000204E0A000000C80C333333330FA0
:10013000986E12831141EF8D2114893BE65516CF3D
:10014000FEE6DB18D1844B381BF77C1D901DA4BB49
:10015000E424203284725E228100C9F124ECA1E5FE
:100160003D270000000023002600290000000000B9
:10017000240027002A0000000000250028002B0092
:10018000040404040404040402020202020203033D
:100190000303030301020408102040800102040845
:1001A00010200102040810200000000800020100D5
:1001B0000003040700000000000000008C194B1928
:1001C00011241FBECFEFD8E0DEBFCDBF26E0A2E4F2
:1001D000B2E001C01D92AB35B207E1F712E0A0E03A
:1001E000B1E0EAE2F5E402C005900D92A234B10755
:1001F000D9F710E0CFEDD0E004C02197FE010E94B6
:100200008222CE3DD107C9F70E94BF190C94FB1A78
:100210000C9400003FB7F894809188029091890275
:10022000A0918A02B0918B0226B5A89B05C02F3FF2
:1002300019F00196A11DB11D3FBFBA2FA92F982F0C
:100240008827BC01CD01620F711D811D911D42E007
:10025000660F771F881F991F4A95D1F708952FB70A
:10026000F894609184027091850280918602909149
:1002700087022FBF08951F920F920FB60F9211247D
:100280002F933F938F939F93AF93BF93809184025B
:1002900090918502A0918602B091870230918302ED
:1002A00023E0230F2D3758F50196A11DB11D209392
:1002B00083028093840290938502A0938602B09378
:1002C00087028091880290918902A0918A02B09160
:1002D0008B020196A11DB11D809388029093890223
:1002E000A0938A02B0938B02BF91AF919F918F919F
:1002F0003F912F910F900FBE0F901F90189526E8F9
:10030000230F0296A11DB11DD2CF4F925F926F9223
:100310007F928F929F92AF92BF92CF92DF92EF9295
:10032000FF920F931F93CF93DF93CDB7DEB7A297C2
:100330000FB6F894DEBF0FBECDBF8EE480937C0075
:1003400062E070E080E090E00E94251980917A00E0
:10035000806480937A0080917A0086FDFCCF2091A2
:1003600078003091790040E050E064EB7BE281E17D
:1003700090E00E945B22DA01C90183539140A109F8
:10038000B109409138065091390660913A06709152
:100390003B06840F951FA61FB71F809338069093C6
:1003A0003906A0933A06B0933B060E942F01809134
:1003B0000001811176C08EE00E947B18092E000C8E
:1003C000AA0BBB0B40913C0650913D0660913E0646
:1003D00070913F06840F951FA61FB71F80933C06A0
:1003E00090933D06A0933E06B0933F0680E10E94A5
:1003F0007B18092E000CAA0BBB0B409150065091A4
:1004000051066091520670915306840F951FA61FE6
:10041000B71F8093500690935106A0935206B09355
:10042000530680917F0290918002A0918102B09149
:1004300082020196A11DB11D80937F0290938002DC
:10044000A0938102B09382020E942F0100911404B4
:10045000109115042091160430911704601B710B44
:10046000820B930B61367A4E8105910510F40C9442
:10047000580E8091000181110C94580E81E08093F8
:1004800000010E942F01609314047093150480935F
:1004900016049093170461E086E00E9492180C9471
:1004A0006F0E8EE00E947B18092E000CAA0BBB0B6E
:1004B00040914C0650914D0660914E0670914F064A
:1004C000840F951FA61FB71F80934C0690934D066F
:1004D000A0934E06B0934F068FE00E947B18092E22
:1004E000000CAA0BBB0B4091400650914106609155
:1004F000420670914306840F951FA61FB71F809375
:10050000400690934106A0934206B093430680E1D3
:100510000E947B18092E000CAA0BBB0B40914406CD
:10052000509145066091460670914706840F951FCD
:10053000A61FB71F8093440690934506A0934606D6
:10054000B093470680917B0290917C02A0917D023E
:10055000B0917E020196A11DB11D80937B02909304
:100560007C02A0937D02B0937E026ECF68E770E0BC
:1005700080E090E00C94EB0E60918C0270E080E0E3
:1005800090E00E94A41D9B01AC016091280670912F
:10059000290680912A0690912B060E940B216093D8
:1005A00028067093290680932A0690932B060E94B2
:1005B0006A13882349F0809192028B3059F120F020
:1005C0008551823008F4B5C760E070E080EC9FE7A9
:1005D00028C060918C0270E080E090E00E94A41D31
:1005E00020E030E040E853E40E94051E6B017C01EE
:1005F00060918D0270E080E090E00E94A61DA7014E
:1006000096010E940B212DEC3CEC4CEC5DE30E942A
:10061000051EB9CF60918E0270E080E090E00E94EC
:10062000A41D9B01AC0160912C0670912D06809158
:100630002E0690912F060E940B2160932C0670933A
:100640002D0680932E0690932F068091010188231A
:1006500009F4F9C10E9452139C0140E050E08091DE
:10066000B9029091BA02281B390B41095109A09196
:10067000B702B091B8020E94C31E6B017C01BFE0BB
:10068000F594E794D794C794BA95D1F76091B102E5
:100690007091B202072E000C880B990B1BE0660FBD
:1006A000771F881F991F1A95D1F72091B3023091B7
:1006B000B402032E000C440B550B2C0D3D1D4E1D9A
:1006C0005F1D0E945B22CA01B9016C0D7D1D8E1D4C
:1006D0009F1D685F7F4F8F4F9F4F04E095958795D3
:1006E000779567950A95D1F70E94A61D20E030E026
:1006F00040E251E40E9477219B01AC0160913006F9
:100700007091310680913206909133060E940B2140
:1007100060933006709331068093320690933306CF
:100720000E9452134C01A12CB12C1091A4021295DD
:10073000110F110F107C1C5C87E70E94741164EF8D
:100740008DEB92E00E94BE10612F8DEB92E00E9433
:10075000BE100E9471118091A402811110C765E042
:1007600070E080E090E00E94251986EF0E948C11D5
:100770006C01E12CF12CFE2CED2CDC2CCC2488EF30
:100780000E94B511C82A1091A4028091B9029091DB
:10079000BA02A5019401281B390B41095109A09106
:1007A000B702B091B8020E94C31E2B013C01AFE01A
:1007B0007594679457944794AA95D1F76091B102C4
:1007C0007091B202072E000C880B990BBBE0660FEC
:1007D000771F881F991FBA95D1F72091B3023091E6
:1007E000B402032E000C440B550B240D351D461D81
:1007F000571D0E945B22420E531E641E751E30EA76
:10080000431A3FE0530A61087108A3019201C30132
:10081000B2010E9429224B015C010CE0B594A7941F
:10082000979487940A95D1F7A091A902B091AA0252
:100830000E947A229B01AC018DE055954795379532
:1008400027958A95D1F72F8F38A349A35AA3A09152
:10085000AB02B091AC02A50194010E947A229C01E6
:10086000552737FD5095452F8F8D98A1A9A1BAA185
:10087000280F391F4A1F5B1F2E5F3F4F4F4F5F4F9F
:1008800062E055954795379527956A95D1F7305889
:100890004F4F5F4FA091B502B091B6020E94C31EA8
:1008A0009B01AC017FE056954795379527957A9542
:1008B000D1F72F8F38A349A35AA388E090E0811B7A
:1008C000910904C0F694E794D794C7948A95D2F717
:1008D000A091AD02B091AE02A50194010E947A22CE
:1008E0004B015C01EBE0B594A79497948794EA954B
:1008F000D1F7A091A702B091A802A30192010E9492
:100900007A22FBE09595879577956795FA95D1F7CB
:10091000680D791D8A1D9B1D8090A5029090A602EE
:10092000092C000CAA08BB08A2E0880C991CAA1C80
:10093000BB1CAA95D1F7680D791D8A1D9B1D012E40
:1009400004C0660F771F881F991F0A94D2F76E5F45
:100950007F4F8F4F9F4F24E030E040E050E00E94F7
:100960005B22D701C601821B930BA40BB50B9C0124
:10097000AD0160E573EC80E090E004C0969587954A
:10098000779567951A95D2F70E94292297FD0AC696
:10099000660F771F881F991F2F8D38A149A15AA173
:1009A0000E94392269017A019927F7FC9A958F2DC7
:1009B0007E2D6D2D9B01AC010E9429229B01AC0173
:1009C000AEEDBBE00E94C31E4B015C01A3E4B3EE9D
:1009D000A70196010E947D22BC01992777FD909581
:1009E000892F4501BB2497FCB094AB2C680D791D71
:1009F0008A1D9B1D6153714F8F4F9F4F54E09595FA
:100A00008795779567955A95D1F76C0D7D1D8E1D4D
:100A10009F1D0E94A61D2FE632E545E053E40E948B
:100A20007721209134063091350640913606509159
:100A300037060E940B21609334067093350680932D
:100A40003606909337066AEF70E080E090E00E94EF
:100A500025198091770290917802A0917902B09146
:100A60007A026C017D01EFEFCE1ADE0AEE0AFE0A71
:100A700084369105A105B1050CF4A1C580907F02D3
:100A800090908002A0908102B09082024090730208
:100A9000509074026090750270907602F4E18F16A7
:100AA0009104A104B1040CF479C020916F0230913B
:100AB000700240917102509172022F8F38A349A3A6
:100AC0005AA38201065F1F4F000F111F000F111F55
:100AD000085E1B4F60913C0670913D0680913E067A
:100AE00090913F06A50194010E945B22CA01B901C1
:100AF0000E94A61D20E030EC4FE754E40E947721CD
:100B00002F8D38A149A15AA10E94051ED8016D93CD
:100B10007D938D939C931397820102591F4F000F71
:100B2000111F000F111F085E1B4F6091500670913E
:100B300051068091520690915306A50194010E949E
:100B40005B22CA01B9010E94A61D2AE939E94CECD1
:100B500052E40E9477212F8D38A149A15AA10E9409
:100B6000051EF801608371838283938310923C0693
:100B700010923D0610923E0610923F0610925006CB
:100B800010925106109252061092530610927F0254
:100B900010928002109281021092820280907B0259
:100BA00090907C02A0907D02B0907E02F4E18F16BE
:100BB0009104A104B1040CF4ACC020916F023091F7
:100BC000700240917102509172022F8F38A349A395
:100BD0005AA3820108581F4F000F111F000F111F49
:100BE000085E1B4F60914C0670914D0680914E0639
:100BF00090914F06A50194010E945B22CA01B901A0
:100C00000E94A61D20E030EC4FE754E40E947721BB
:100C10002F8D38A149A15AA10E94051ED8016D93BC
:100C20007D938D939C93139782010C5E1F4F000F51
:100C3000111F000F111F085E1B4F6091400670913D
:100C400041068091420690914306A50194010E94BD
:100C50005B22CA01B9010E94A61D2AE939E94CECC0
:100C600052E40E9477212F8D38A149A15AA10E94F8
:100C7000051EF80160837183828393838201025E83
:100C80001F4F000F111F000F111F085E1B4F6091B7
:100C90004406709145068091460690914706A5014D
:100CA00094010E945B22CA01B9010E94A61D20E0A6
:100CB00030EC4FE754E40E9477212F8D38A149A1F1
:100CC0005AA10E94051ED8016D937D938D939C932C
:100CD000139710924006109241061092420610920D
:100CE0004306109244061092450610924606109252
:100CF000470610924C0610924D0610924E06109226
:100D00004F0610927B0210927C0210927D0210928C
:100D10007E02609138067091390680913A06909172
:100D20003B06A70196010E945B22CA01B9010E94FD
:100D3000A61D20E030E04AE754E40E9477214B01F1
:100D40005C01F201EE0FFF1FEE0FFF1FE85EFB4F8D
:100D500060837183828393838201085D1F4F000F3C
:100D6000111F000F111F085E1B4F60914806709104
:100D7000490680914A0690914B06A70196010E9470
:100D80005B22CA01B9010E94A61D20E030EC4FE7AA
:100D900054E40E947721A50194010E94051E20E0E1
:100DA00030E048E251E40E94051EF801608371833F
:100DB00082839383C701B6010E94A61D6B017C014B
:100DC00082010E5C1F4F000F111F000F111F085EE4
:100DD0001B4F9B01AC016091200670912106809110
:100DE0002206909123060E947721D8016D937D936E
:100DF0008D939C9313978201045C1F4F000F111F6A
:100E0000000F111F085E1B4FA70196016091240679
:100E10007091250680912606909127060E947721E1
:100E2000F801608371838283938382010A5B1F4F81
:100E3000000F111F000F111F085E1B4FA701960125
:100E4000609128067091290680912A0690912B06C0
:100E50000E947721D8016D937D938D939C93139776
:100E60008201005B1F4F000F111F000F111F085E52
:100E70001B4FA701960160912C0670912D06809161
:100E80002E0690912F060E947721F80160837183CE
:100E900082839383809101018823A9F18201065AFC
:100EA0001F4F000F111F000F111F085E1B4FA701DE
:100EB00096016091300670913106809132069091D2
:100EC00033060E947721D8016D937D938D939C9377
:100ED000139782010C591F4F000F111F000F111F94
:100EE000085E1B4FA701960160913406709135068C
:100EF00080913606909137060E947721F801608331
:100F0000718382839383109238061092390610926F
:100F10003A0610923B06109248061092490610922B
:100F20004A0610924B06109220061092210610924B
:100F30002206109223061092240610922506109283
:100F40002606109227061092280610922906109263
:100F50002A0610922B0610922C0610922D06109243
:100F60002E0610922F061092300610923106109223
:100F70003206109233061092340610923506109203
:100F8000360610923706109277021092780210926D
:100F9000790210927A02D301C2010196A11DB11DFE
:100FA0008093730290937402A0937502B0937602BB
:100FB0000A97A105B1055CF081E080936E02109262
:100FC0007302109274021092750210927602809150
:100FD0006E02882361F088E194E00E942B116093F7
:100FE0006F027093700280937102909372028BEC87
:100FF00092E00E941111181619060CF083C28BECB6
:1010000092E00E94EF108A3009F0FFC480916E02D6
:10101000882309F4DDC288E194E00E942B116093DB
:101020006F0270937002809371029093720288EF46
:1010300095E00E942B1160936A0270936B0280937B
:101040006C0290936D0280E494E00E942B116B017E
:101050007C0188E694E00E942B11609366027093F5
:101060006702809368029093690280E994E00E948D
:101070002B116093620270936302809364029093D9
:10108000650280ED95E00E942B1160935E027093E3
:101090005F02809360029093610288EB94E00E946B
:1010A0002B1160935A0270935B0280935C029093C1
:1010B0005D0280EE94E00E942B11609356027093C3
:1010C0005702809358029093590288E595E00E9458
:1010D0002B116093520270935302809354029093A9
:1010E000550280E395E00E942B1160934E027093AD
:1010F0004F02809350029093510288E095E00E9445
:101100002B1160934A0270934B0280934C02909390
:101110004D02809101018823C1F080E895E00E9492
:101120002B1160934602709347028093480290937C
:10113000490288EA95E00E942B1160934202709365
:101140004302809344029093450268E271E0CE012D
:101150000D960E94401880906A0290906B02A090B9
:101160006C02B0906D026FE271E0CE0101960E94B8
:101170004018BE016F5F7F4FCE0107960E9437185F
:10118000B501A401CE0107960E945117BE01635F0D
:101190007F4F0E94F517B701A6010E945117BC01AD
:1011A0008EE992E00E940818CE0107960E9432183C
:1011B000CE0101960E943218CE010D960E9432187F
:1011C000C0906202D0906302E0906402F0906502E9
:1011D00064E371E0CE010D960E9440188090660293
:1011E00090906702A0906802B09069026BE371E092
:1011F000CE0101960E944018BE016F5F7F4FCE0165
:1012000007960E943718B501A401CE0107960E94E7
:101210005117BE01635F7F4F0E94F517B701A6010A
:101220000E9451170E944913CE0107960E9432185E
:10123000CE0101960E943218CE010D960E943218FE
:10124000C0905E02D0905F02E0906002F090610278
:1012500062E471E0CE0101960E944018BE016F5F0A
:101260007F4FCE0107960E943718B701A601CE0125
:1012700007960E9451170E944913CE0107960E94BB
:101280003218CE0101960E9432180E942612C09098
:101290005602D0905702E0905802F09059026AE44A
:1012A00071E0CE0143960E94401880906F029090AA
:1012B0007002A0907102B090720262E571E0CE01FE
:1012C0000D960E94401840905A0250905B02609028
:1012D0005C0270905D026AE571E0CE0101960E94A9
:1012E0004018BE016F5F7F4FCE0107960E943718EE
:1012F000B301A201CE0107960E945117BE01635FA0
:101300007F4F0E94F517B501A4010E945117BE013D
:101310006D5E7F4F0E94F517B701A6010E9451171D
:10132000BC018EE992E00E940818CE0107960E9447
:101330003218CE0101960E943218CE010D960E94FD
:101340003218CE0143960E943218C0904A02D090C3
:101350004B02E0904C02F0904D0260E671E0CE014D
:1013600001960E944018BE016F5F7F4FCE01079625
:101370000E943718B701A601CE0107960E945117A7
:101380000E944913CE0107960E943218CE010196A1
:101390000E94321826E636E646EC52E460914E0290
:1013A00070914F0280915002909151020E941F2231
:1013B000181664F480E090E0A8ECB2E480934E024A
:1013C00090934F02A0935002B0935102C0905202EA
:1013D000D0905302E0905402F090550266E671E01E
:1013E000CE010D960E94401880904E0290904F02C0
:1013F000A0905002B09051026DE671E0CE010196CE
:101400000E944018BE016F5F7F4FCE0107960E9479
:101410003718B501A401CE0107960E945117BE01ED
:10142000635F7F4F0E94F517B701A6010E94511715
:101430000E944913CE0107960E943218CE010196F0
:101440000E943218CE010D960E9432180E94261278
:1014500080910101882309F445C0C0904602D090D4
:101460004702E0904802F090490264E771E0CE0143
:101470000D960E9440188090420290904302A090E6
:101480004402B09045026BE771E0CE0101960E94E4
:101490004018BE016F5F7F4FCE0107960E9437183C
:1014A000B501A401CE0107960E945117BE01635FEA
:1014B0007F4F0E94F517B701A6010E945117BC018A
:1014C0008EE992E00E940818CE0107960E94321819
:1014D000CE0101960E943218CE010D960E9432185C
:1014E0000E94261262E871E0CE0101960E94401827
:1014F000CE0101960E944913CE0101960E94321836
:101500000E943612A2960FB6F894DEBF0FBECDBF72
:10151000DF91CF911F910F91FF90EF90DF90CF90CF
:10152000BF90AF909F908F907F906F905F904F9003
:10153000089510918E02612F6F7770E080E090E047
:101540000E94A61D20E030E040E853E40E94051E02
:101550006B017C0160918F0270E080E090E00E945E
:10156000A61DA70196010E940B212DEC3CEC4CEC32
:101570005DE30E94051E17FF54C8905852C8813081
:1015800029F468E070E080E090E0EDC8823029F452
:101590006EE070E080E090E0E6C86AE170E080E034
:1015A00090E0E1C82F8D38A149A15AA10E943922AB
:1015B00069017A01CC0CDD1CEE1CFF1CF5C9C09240
:1015C0007702D0927802E0927902F0927A020FCDFF
:1015D00060914406709145068091460690914706B9
:1015E00020917B0230917C0240917D0250917E02DD
:1015F0000E945B2269017A0164E371E0CE014396A7
:101600000E94401860914006709141068091420608
:101610009091430620917B0230917C0240917D02A3
:1016200050917E020E945B2249015A016BE371E0F6
:10163000CE010D960E94401860913C0670913D06C7
:1016400080913E0690913F0620917B0230917C0272
:1016500040917D0250917E020E945B2229013A0155
:101660006FE271E0CE0101960E944018BE016F5FEB
:101670007F4FCE0107960E943718B301A201CE0119
:1016800007960E948817BE01635F7F4F0E94F5177F
:10169000B501A4010E948817BE016D5E7F4F0E94B4
:1016A000F517B701A6010E948817BC018EE992E0E8
:1016B0000E940818CE0107960E943218CE010196AA
:1016C0000E943218CE010D960E943218CE01439628
:1016D0000E9432180E94261260917702709178025F
:1016E0008091790290917A020E94A61D9B01AC0123
:1016F0006091200670912106809122069091230628
:101700000E9477216B017C016AE471E0CE0143966F
:101710000E944018609138067091390680913A060F
:1017200090913B06209177023091780240917902A6
:1017300050917A020E945B22CA01B9010E94A61D43
:1017400020E030E04AE754E40E9477214B015C013D
:1017500062E571E0CE010D960E9440186091480646
:101760007091490680914A0690914B06209177022C
:10177000309178024091790250917A020E945B2266
:1017800029013A016AE571E0CE0101960E944018F4
:10179000BE016F5F7F4FCE0107960E943718B301DD
:1017A000A201CE0107960E948817BE01635F7F4F9A
:1017B0000E94F517B501A4010E945117BE016D5E8C
:1017C0007F4F0E94F517B701A6010E945117BC0177
:1017D0008EE992E00E940818CE0107960E94321806
:1017E000CE0101960E943218CE010D960E94321849
:1017F000CE0143960E9432180E9426126091770211
:10180000709178028091790290917A020E94A61DCF
:101810009B01AC01609124067091250680912606FB
:10182000909127060E9477216B017C0160E671E0B0
:10183000CE0101960E944018BE016F5F7F4FCE011E
:1018400007960E943718B701A601CE0107960E949D
:101850005117BC018EE992E00E940818CE0107964C
:101860000E943218CE0101960E94321860917702D0
:10187000709178028091790290917A020E94A61D5F
:101880009B01AC0160912C0670912D0680912E0673
:1018900090912F060E9477216B017C0166E671E032
:1018A000CE010D960E9440186091770270917802E7
:1018B0008091790290917A020E94A61D9B01AC0151
:1018C000609128067091290680912A0690912B0636
:1018D0000E9477214B015C016DE671E0CE0101961B
:1018E0000E944018BE016F5F7F4FCE0107960E9495
:1018F0003718B501A401CE0107960E945117BE0109
:10190000635F7F4F0E94F517B701A6010E94511730
:101910000E944913CE0107960E943218CE0101960B
:101920000E943218CE010D960E9432180E94261293
:1019300080910101882309F465C06091770270915C
:1019400078028091790290917A020E94A61D9B01F3
:10195000AC01609130067091310680913206909111
:1019600033060E9477216B017C0164E771E0CE01B0
:101970000D960E94401860917702709178028091D4
:10198000790290917A020E94A61D9B01AC016091A0
:1019900034067091350680913606909137060E9484
:1019A00077214B015C016BE771E0CE0101960E944B
:1019B0004018BE016F5F7F4FCE0107960E94371817
:1019C000B501A401CE0107960E945117BE01635FC5
:1019D0007F4F0E94F517B701A6010E945117BC0165
:1019E0008EE992E00E940818CE0107960E943218F4
:1019F000CE0101960E943218CE010D960E94321837
:101A00000E94261261E971E06FCD843409F0EFC0C5
:101A100080EA91E00E94241289EA91E00E94631119
:101A20008FEA91E00E94631108E114E0C12CD12CEF
:101A300076015801412C512C320186EB91E00E9435
:101A40002412C701B6010E9444128EEB91E00E945D
:101A50002412C301B2010E94441281EC91E00E9461
:101A60002412D5016D917D918D919D915D010E9412
:101A70007612BFEF4B1A5B0A6B0A7B0AEAE04E163E
:101A8000510461047104C9F684ED91E00E94631170
:101A9000085D1F4FFFEFCF1ADF0AEF0AFF0A2DE0A4
:101AA000C216D104E104F10421F600E216E0C12CD3
:101AB000D12C760184EC91E00E942412C701B6017A
:101AC0000E94441281EC91E00E942412D8016D9191
:101AD0007D918D919D918D010E947612BFEFCB1A61
:101AE000DB0AEB0AFB0AE6E0CE16D104E104F104BE
:101AF00009F708E316E0C12CD12C76018BEC91E0BC
:101B00000E942412C701B6010E94441281EC91E0A8
:101B10000E942412D8016D917D918D919D918D012E
:101B20000E94441282ED91E00E944B11BFEFCB1A4C
:101B3000DB0AEB0AFB0AE7E0CE16D104E104F1046C
:101B4000E9F663ED71E0CE0149960E9440180091DC
:101B500073021091740265ED71E0CE0143960E940C
:101B6000401863ED71E0CE010D960E944018E090A0
:101B70007702F09078026EED71E0CE0101960E943E
:101B80004018BE016F5F7F4FCE0107960E94371845
:101B9000B701CE0107960E94BF17BE01635F7F4F5A
:101BA0000E94F517BE016D5E7F4F0E94F517B801C8
:101BB0000E94BF17BE01675E7F4F0E94F517BC01F0
:101BC0008EE992E00E940818CE0107960E94321812
:101BD000CE0101960E943218CE010D960E94321855
:101BE000CE0143960E943218CE01499687CC8335A8
:101BF00009F088CC80EA91E00E94241289EA91E001
:101C00000E94631184EE91E00E946311C12CD12CDB
:101C10007601C39400E010E0FFE7CF16D104E104A1
:101C2000F104E1F18C2D0E9474110E947111811157
:101C30001DC080EF91E00E94241220E1C216D10461
:101C400024F48AEF91E00E94241240E1C701B6011A
:101C50000E94D4118CEF91E00E9463110F5F1F4F1F
:101C60004FEFC41AD40AE40AF40AD6CF8430C1F77D
:101C700080E092E00E94241230E1C316D10424F4E3
:101C80008AEF91E00E94241240E1C701B6010E9450
:101C9000D41182ED91E00E944B11E2CF012B29F487
:101CA0008EE092E00E9463112DCC84E292E0FACFA4
:101CB0000E942F0100911404109115042091160424
:101CC00030911704601B710B820B930B61397F45B8
:101CD0008140910520F0809100018111CEC081E109
:101CE0000E947B18092E000CAA0BBB0B40914806E2
:101CF0005091490660914A0670914B06840F951FDA
:101D0000A61FB71F8093480690934906A0934A06E2
:101D1000B0934B0688EC80937C0080917A008068B9
:101D200080937A0064E170E080E090E00E942519E1
:101D300080917A00806480937A0080917A0086FD99
:101D4000FCCF609178007091790080E090E00E9473
:101D5000A41D2EEA37E242EA53E40E940A2126EF4C
:101D600038E24CE95FE30E94772120E030E040E177
:101D700051E40E940B2120912006309121064091D0
:101D80002206509123060E940B2160932006709337
:101D90002106809322069093230680915606803276
:101DA000E0F0823210F08332C1F4809154060E9438
:101DB0007411609156068DEB92E00E94BE100E9455
:101DC000711180915606833211F00C94B60260E1D5
:101DD00070E080E090E00E94251962E070E0809160
:101DE0005406909155060E947E118DEB92E00E9460
:101DF000731000E010E0182F8DEB92E00E9473103A
:101E0000802B912BBC0180E090E00E94A41D2AE968
:101E100039E949E95FE30E9477210E94F02180E0DF
:101E200090E00E94A41D9B01AC016091240670917A
:101E3000250680912606909127060E940B2160932B
:101E400024067093250680932606909327060E9409
:101E50006A13882361F0809192028B3011F40C9404
:101E6000BC0228F08551823010F40C94E90260E045
:101E700070E080EC9FE70C94C302109200010E9476
:101E80002F016093140470931504809316049093AB
:101E9000170460E00C944C02613208F048C0909145
:101EA000F3039111FCCF92E09093F3034093F2037C
:101EB0009FEF9093F1031092F0036093EF03A4EF70
:101EC000B3E0EFECF3E090E069132BC01092CE0387
:101ED0009091CE03880F892B8093CE038091CD0300
:101EE000813019F51092CD038091CE038093BB0011
:101EF0008091BC0083FDF8CF85EC8093BC0080917D
:101F0000F3038230E1F38091F1038F3F91F08091F0
:101F1000F103803281F08091F103803371F084E02D
:101F200008952D9121939F5FCFCF85EEE6CF81E07D
:101F3000089580E0089582E0089583E00895482F91
:101F40006091CA028091CC030E944C0F1092C9028A
:101F50001092CA021092CB030895613208F043C078
:101F60009091F3039111FCCF91E09093F303909340
:101F7000F2032FEF2093F1031092F003260F20932A
:101F8000EF039093CE039091CE03880F892B80931B
:101F9000CE038091CD03813001F51092CD03809165
:101FA000CE038093BB008091BC0083FDF8CF85EC0D
:101FB0008093BC008091F3038130E1F38091F003C2
:101FC000861710F46091F003EFECF3E0ABEAB3E0B6
:101FD00080E0861304C0862F089585EEE9CF9191A5
:101FE0009D938F5FF6CF60E0F6CF8F929F92AF9276
:101FF000BF92CF92DF92EF92FF92CF93DF93A091A7
:1020000093028823A9F13A2F8091940290E0880FDF
:10201000991FAC014E595E4FC0909902D0909A0220
:10202000E0909B02F0909C0260E070E0CB01FA012E
:10203000C591D49128812A2323130FC04B015C0141
:102040002FEF821A920AA20AB20A6C157D058E053C
:102050009F0580F060E070E0CB01DF91CF91FF90B1
:10206000EF90DF90CF90BF90AF909F908F900895AA
:1020700030E0CACFC501B401DACF85ED8093BC0052
:102080008091BC0084FDFCCF1092F303089561326F
:1020900098F42091F303243089F460938803282F67
:1020A000A8E6B3E0FC018E2F821B861710F080E0BB
:1020B000089581918D93F7CF81E0089582E008958E
:1020C00008958091BC0290E02091BB0230E082171D
:1020D000930734F485559C4FFC01808190E008956E
:1020E0008FEF9FEF08952091BC02822F90E04091E6
:1020F000BB0250E0841795074CF485559C4FFC01BA
:10210000808190E02F5F2093BC0208958FEF9FEFB6
:1021100008958091BB0290E02091BC02821B91093E
:102120000895CF92DF92EF92FF920F931F93CF9378
:10213000DF937C01CB018A012091CB03222389F01C
:10214000EB016B01C40ED51ECC15DD0569F069915C
:10215000D701ED91FC910190F081E02DC701099527
:10216000F3CF642F0E944710C801DF91CF911F91D8
:102170000F91FF90EF90DF90CF900895CF93DF9372
:102180001F92CDB7DEB769832091CB03222309F1DB
:102190002091CA0230E0203231055CF021E030E0CD
:1021A000FC013383228380E090E00F90DF91CF9198
:1021B00008958091C902E82FF0E0EC50FC4F99811E
:1021C00090838F5F8093C9028093CA0281E090E080
:1021D000ECCF61E0CE0101960E944710F7CFFC01E1
:1021E000918D828D981761F0828DDF01A80FB11D4E
:1021F0005D968C91928D9F5F9F73928F90E0089572
:102200008FEF9FEF0895FC01918D828D981731F02B
:10221000828DE80FF11D858D90E008958FEF9FEF7F
:102220000895FC01918D228D892F90E0805C9F4F55
:10223000821B91098F739927089589E896E1892B6C
:1022400049F080E090E0892B29F00E9489168111E5
:102250000C94000008950F931F93CF93DF93EC012C
:102260008C01085D1F4F60E070E0CB01C017D10703
:1022700039F029913991499159910E940B21F6CF5A
:1022800020E030E040E251E40E947721DF91CF91DD
:102290001F910F910895009799F0FC010190002083
:1022A000E9F73197AF01481B590BE091CB02F09150
:1022B000CC020280F381E02DBC018BEC92E009940A
:1022C00080E090E00895CF93DF930E944B11EC01E2
:1022D00082ED91E00E944B118C0F9D1FDF91CF91F9
:1022E000089581E00C949F0F91E09093CB0380932D
:1022F000CC031092C9021092CA0208959B013327A1
:102300002132310514F060E270E00E94AD0F1092AE
:10231000BC028093BB020895CF93DF93C82F87E759
:102320000E9474116C2F8DEB92E00E94BE100E94EF
:10233000711187E70E94741162E070E087E790E016
:102340000E947E118DEB92E00E947310D82F80E0E6
:10235000C82F8DEB92E00E947310C82BD92B0E94DE
:102360007111CE01DF91CF910895CF93C82F87E7E8
:102370000E9474116C2F8DEB92E00E94BE100E949F
:10238000711187E70E94741161E070E087E790E0C7
:102390000E947E118DEB92E00E947310C82F0E9464
:1023A00071118C2FCF9108958F929F92AF92BF920F
:1023B000EF92FF920F931F93CF93DF93CDB7DEB7CA
:1023C000A1970FB6F894DEBF0FBECDBF162F042F16
:1023D00019A2242F30E0223031050CF40AE07E01EE
:1023E00021E2E20EF11C802E912CA12CB12C612F48
:1023F000A50194010E943922029F1019112481E045
:10240000E81AF1081A30F4F4105DF7011083122F66
:10241000732FCA01232B242B252B49F7C7010E94B8
:102420004B11A1960FB6F894DEBF0FBECDBFDF9162
:10243000CF911F910F91FF90EF90BF90AF909F9021
:102440008F900895195CE1CF0C944B11EEE9F2E006
:102450004481558160817181E091CB02F091CC0281
:102460000280F381E02D8BEC92E00994CF93DF930F
:102470000E942612EC0182ED91E00E944B118C0F1C
:102480009D1FDF91CF910895CF92DF92EF92FF923F
:10249000CF93DF936B017C0197FF1FC0E091CB02CC
:1024A000F091CC020190F081E02D6DE28BEC92E096
:1024B0000995EC0166277727CB016C197D098E09F8
:1024C0009F094AE00E94D4118C0F9D1FDF91CF918C
:1024D000FF90EF90DF90CF9008954AE0DF91CF9189
:1024E000FF90EF90DF90CF900C94D4114F925F92B9
:1024F0006F927F928F929F92AF92BF92CF92DF9214
:10250000EF92FF926B017C019B01AC010E9424229F
:10251000882309F49FC082E392E0B7C02FEF3FEF1A
:102520004FE75FE4C701B6010E941F2218161CF492
:102530008EE292E0AAC02FEF3FEF4FE75FECC701BA
:10254000B6010E949F1D87FDF3CF20E030E0A90176
:10255000C701B6010E949F1D87FF79C0E091CB02A1
:10256000F091CC020190F081E02D6DE28BEC92E0D5
:1025700009955C01F7FAF094F7F8F0942AE037ED4A
:1025800043EA5BE3C701B6010E940B212B013C012A
:102590000E94F0216B017C010E94A41D9B01AC01F3
:1025A000C301B2010E940A212B013C014AE0C7018C
:1025B000B6010E94D4117C018EEE91E00E944B1175
:1025C000EA0CFB1CE80EF91E20E030E040E251E48A
:1025D000C301B2010E94051E2B013C010E94E921AA
:1025E0004B01770FAA08BB08C501B4010E94441231
:1025F000E80EF91EC501B4010E94A61D9B01AC01A5
:10260000C301B2010E940A2120E030E040E251E41F
:102610000E94051E0E94E921072E000C880B990BD1
:102620000E944412E80EF91E82ED91E00E944B11C7
:102630008E0D9F1DFF90EF90DF90CF90BF90AF90D9
:102640009F908F907F906F905F904F900895A12CF6
:10265000B12C94CF46015701E894B7F82FEF3FEF24
:102660004FE75FE7C501B4010E942422811156CFD4
:102670002FEF3FEF4FE75FE7C501B4010E949F1DB9
:1026800018160CF04BCF8AE292E00E944B117C01AD
:10269000CBCFFC0144815581608171818EE992E04C
:1026A0000C94261787E70E94741164EF8DEB92E07B
:1026B0000E94BE106EE28DEB92E00E94BE100E945E
:1026C000711165E070E080E090E00E94251986EFCE
:1026D0000C948C11CF92DF92EF92FF920F931F9385
:1026E000CF93DF93CDB7DEB7C054D1400FB6F89487
:1026F000DEBF0FBECDBF0E942F0100919502109149
:10270000960220919702309198026B017C01C01AC9
:10271000D10AE20AF30A40EDC41647E0D406E10408
:10272000F10490F480919D02C05CDE4F0FB6F894E6
:10273000DEBF0FBECDBFDF91CF911F910F91FF90F4
:10274000EF90DF90CF90089560939502709396027A
:1027500080939702909398021092900210928F02A9
:1027600010928E0210928D0210928C0261E0809184
:1027700091020E9492186AEF70E080E090E00E945F
:10278000251961E0809191020E94DE1860E080913D
:1027900091020E94921864E170E080E090E00E9453
:1027A0002519F89461E0809191020E94921888E2C4
:1027B00090E00E941A1962E0809191020E94DE1856
:1027C0008AE090E00E941A1980E00E94F50F672BC2
:1027D000682B692B29F410929D02789480E0A4CF95
:1027E00081E00E94F50F672B682B692BA1F38E0106
:1027F0000F5F1F4F6E018FEBC81A8EEFD80A78015A
:1028000080E00E94F50FF7016083718382839383D8
:1028100081E00E94F50FF7016483758386839783B7
:10282000F8E0EF0EF11CEC14FD0451F7789420E071
:1028300030E0F801C080D180E280F380448155818E
:1028400066817781C114D104E104F10429F04115B6
:1028500051056105710519F410929D02BFCFF90170
:1028600083E0F595E7958A95E1F7E457FD4F808180
:10287000880FC416D506E606F70610F180832F5F91
:102880003F4F085F1F4F2832310599F62091900283
:1028900030E040918C0280918D0290E0840F911D78
:1028A00040918E02840F911D40918F02840F911DE3
:1028B00099272817390781F681E080939D0234CF4C
:1028C0008160DCCF1F920F920FB60F9211242F93CD
:1028D0003F934F935F936F937F938F939F93AF93A8
:1028E000BF93EF93FF938091B900887F803609F4FE
:1028F0004AC0F0F5883209F4A5C018F5803109F412
:1029000099C0B8F4882309F4F5C0883009F492C05E
:10291000FF91EF91BF91AF919F918F917F916F91B7
:102920005F914F913F912F910F900FBE0F901F908D
:102930001895883109F486C0803251F78093F103ED
:1029400014C0803409F49BC040F48033B9F3883359
:10295000F9F68093F10385ECAEC0803509F483C0AD
:10296000883509F494C0883499F60E943D10D0CF80
:10297000883909F48AC038F5883729F050F4883648
:1029800011F0803729F683E08093F3031092AA03B5
:1029900055C0883809F479C0803919F0803809F0B9
:1029A000B7CF8091AA03803208F06FC0E091AA03EC
:1029B00081E08E0F8093AA038091BB00F0E0E65780
:1029C000FC4F80833BC0803B39F0D0F4803A09F45F
:1029D00077C0883A09F09CCF84E08093F30310928B
:1029E000890310928803E0E0F0E009958091880364
:1029F00081110FC081E0809388031092680309C0A1
:102A0000803C09F4A8CF883C09F4A5CF883B09F0A5
:102A10007FCFE091890381E08E0F80938903F0E0FE
:102A2000E859FC4F80818093BB009091890380918D
:102A3000880329C08091CE038093BB0085EC8093EE
:102A4000BC0066CF9091F0038091EF03981758F582
:102A5000E091F00381E08E0F8093F003F0E0E1530A
:102A6000FC4F8081E9CFE091F00381E08E0F8093ED
:102A7000F0038091BB00F0E0E153FC4F8083909124
:102A8000F0038091EF039817C8F285E8D8CFE09162
:102A9000F00381E08E0F8093F0038091BB00F0E0A3
:102AA000E153FC4F80838091F20381115ECF81E07E
:102AB0008093CD0384EA8093BC001092F30328CF67
:102AC00085EC8093BC001092F3038091AA038032BE
:102AD00030F4E091AA03F0E0E657FC4F10826091D9
:102AE000AA0370E08AE893E0E0E0F0E00995109234
:102AF000AA030ECF1092F10338CF1092F30381E0B6
:102B00008093F2031092CD0361E082E10E9492185B
:102B100061E083E10E949218E9EBF0E080818E7F12
:102B2000808380818D7F808388E48093B80085E4F2
:102B30008093BC000895FC01848DDF01A80FB11DB6
:102B4000A35ABF4F2C91848D90E001968F739927E3
:102B5000848FA689B7892C93A089B1898C918064D0
:102B60008C93938D848D981306C00288F389E02D91
:102B700080818F7D80830895EF92FF920F931F9342
:102B8000CF93DF93EC01F62E81E0888F9B8D8C8DA7
:102B9000981305C0E889F989808185FD2CC00B8DCB
:102BA00010E00F5F1F4F0F731127E02E8C8DE8127E
:102BB0000CC00FB607FCFACFE889F989808185FF40
:102BC000F5CFCE010E949B15F1CF8B8DFE01E80F52
:102BD000F11DE35AFF4FF0820B8FEA89FB89808158
:102BE0008062808381E090E0DF91CF911F910F910F
:102BF000FF90EF900895EE89FF896083E889F98955
:102C000080818064EECFCF93DF93EC01888D8823A1
:102C100051F0EA89FB89808185FD08C0A889B989BE
:102C20008C9186FF03C0DF91CF9108950FB607FC0A
:102C3000F2CF808185FFEFCFE889F989808185FF18
:102C4000E8CFCE010E949B15E4CFCF92DF92EF92A6
:102C5000FF920F931F93CF93DF937C016A018B0147
:102C6000C0E0D0E0CC15DD0579F0D8016D918D0183
:102C7000D701ED91FC910190F081E02DC7010995FC
:102C8000892B11F02196EECFCE01DF91CF911F91CC
:102C90000F91FF90EF90DF90CF900895789484B5D6
:102CA000826084BD84B5816084BD85B5826085BD48
:102CB00085B5816085BDEEE6F0E08081816080832E
:102CC000E1E8F0E010828081826080838081816011
:102CD0008083E0E8F0E0808181608083E1EBF0E0D8
:102CE000808184608083E0EBF0E08081816080837C
:102CF000EAE7F0E080818460808380818260808365
:102D00008081816080838081806880831092C1008F
:102D100008958BEC92E00E94111121E0892B09F4B7
:102D200020E0822F08950F931F93CF93DF93EC0140
:102D30008B0188819981009759F02A813B81261760
:102D4000370730F081E0DF91CF911F910F91089507
:102D5000B8016F5F7F4F0E943820009759F0998328
:102D600088831B830A832C813D81232B59F7FC0127
:102D70001082E8CF80E0E7CFCF93DF93EC0188812A
:102D80009981009711F00E94AD1F198218821D824F
:102D90001C821B821A82DF91CF9108951F920F929D
:102DA0000FB60F9211242F933F934F935F936F931E
:102DB0007F938F939F93AF93BF93EF93FF938BEC8E
:102DC00092E00E949B15FF91EF91BF91AF919F916F
:102DD0008F917F916F915F914F913F912F910F90C4
:102DE0000FBE0F901F9018951F920F920FB60F9263
:102DF00011242F938F939F93EF93FF93E091DB0226
:102E0000F091DC028081E091E102F091E20282FD2A
:102E10001BC090818091E4028F5F8F732091E50247
:102E2000821741F0E091E402F0E0E553FD4F958F09
:102E30008093E402FF91EF919F918F912F910F90DA
:102E40000FBE0F901F9018958081F4CFEF92FF92E4
:102E50000F931F93CF93DF93EC017B01672B41F41A
:102E600080E0DF91CF911F910F91FF90EF90089537
:102E700041155105A1F00C811D81040F151FB801EA
:102E80000E949316882361F3288139818C819D816A
:102E9000B701820F931F0E9403211D830C8381E0E1
:102EA000E0CFEF92FF920F931F93CF93DF93CDB7B5
:102EB000DEB764970FB6F894DEBF0FBECDBF7C01BE
:102EC000CB01BA018E010F5F1F4F22E044E00E9448
:102ED000DB1AFC0101900020E9F73197AF01481B94
:102EE000590BBC01C7010E942617811103C0C701FD
:102EF0000E94BC16C70164960FB6F894DEBF0FBEE1
:102F0000CDBFDF91CF911F910F91FF90EF9008956A
:102F1000EF92FF920F931F93CF93DF93CDB7DEB75E
:102F20002E970FB6F894DEBF0FBECDBF7C01CB014C
:102F3000BA012AE08E010F5F1F4FA8010E94091BF2
:102F4000F80101900020E9F73197AF01401B510BC8
:102F5000B801C7010E942617811103C0C7010E9452
:102F6000BC16C7012E960FB6F894DEBF0FBECDBFBC
:102F7000DF91CF911F910F91FF90EF900895EF9205
:102F8000FF920F931F93CF93DF93CDB7DEB72897B0
:102F90000FB6F894DEBF0FBECDBF7C01CB014AE077
:102FA0008E010F5F1F4FB8010E94FE1AF8010190B9
:102FB0000020E9F73197AF01401B510BB801C70161
:102FC0000E942617811103C0C7010E94BC16C701C9
:102FD00028960FB6F894DEBF0FBECDBFDF91CF911C
:102FE0001F910F91FF90EF900895CF93DF93EC0125
:102FF000FB0144815581608171810E9426178111F6
:1030000003C0CE010E94BC16CE01DF91CF9108957E
:10301000EF92FF920F931F93CF93DF93EC018617EC
:10302000970781F0FB01008111810115110539F02D
:10303000E480F580B7010E94931681110BC0CE0188
:103040000E94BC16CE01DF91CF911F910F91FF908E
:10305000EF900895FD82EC82B801888199810E94E9
:103060000321F0CFFC01808191810C94AD1FFC0104
:103070001182108213821282158214820C94081815
:10308000EF92FF920F931F93CF93DF93EC017B019D
:10309000198218821B821A821D821C826115710599
:1030A00019F1FB0101900020E9F731978F01061B10
:1030B000170BB8010E949316811109C0CE01DF9150
:1030C000CF911F910F91FF90EF900C94BC161D8330
:1030D0000C83B70188819981DF91CF911F910F9166
:1030E000FF90EF900C940321DF91CF911F910F91EE
:1030F000FF90EF9008958E3008F08E5087708064B6
:1031000080937C0080917A00806480937A00809123
:103110007A0086FDFCCF809178002091790090E0C4
:10312000922B089590E0FC01E855FE4F3491FC018C
:10313000EC56FE4F2491FC01E058FE4FE491EE2343
:10314000C9F0332339F0333001F1A8F4313019F1EB
:10315000323029F1F0E0EE0FFF1FEA58FE4FA59143
:10316000B4918FB7F894EC91611126C020952E236D
:103170002C938FBF08953730A9F03830C9F0343020
:1031800049F7809180008F7D03C0809180008F7708
:1031900080938000DFCF84B58F7784BDDBCF84B58B
:1031A0008F7DFBCF8091B0008F778093B000D2CF1E
:1031B0008091B0008F7DF9CF2E2BDACFCF93DF93A4
:1031C00090E0FC01EC56FE4F249180589E4FFC018C
:1031D00084918823C9F090E0880F991FFC01E4597D
:1031E000FE4FA591B491FC01EA58FE4FC591D491D0
:1031F00061110DC09FB7F8948C91209582238C9318
:103200008881282328839FBFDF91CF910895623062
:1032100051F49FB7F8943C91822F809583238C932F
:10322000E8812E2BEFCF8FB7F894EC912E2B2C93B7
:103230008FBFEACF8230910538F0880F991F880F31
:10324000991F05970197F1F70895CF92DF92EF92BA
:10325000FF92CF93DF936B017C010E940A01EB0187
:10326000C114D104E104F10439F4DF91CF91FF904E
:10327000EF90DF90CF9008950E940A016C1B7D0BA8
:10328000683E734068F381E0C81AD108E108F1088C
:10329000C851DC4FE5CF8EE992E00C943218ACE8CF
:1032A000B2E085E015968C93159785E116968C9380
:1032B0001697E9E9F1E0E4911796EC931797E5E8A2
:1032C000F1E0E4911896EC93189740E85EE360E033
:1032D00070E01D964D935D936D937C93509783E2C0
:1032E00090E0909355068093540664ED71E08EE96A
:1032F00092E00C944018EDEBF2E01382128288EE1B
:1033000093E0A0E0B0E084839583A683B7838CE04C
:1033100091E09183808308950E947B190E94921905
:103320000C944F19EBECF2E01382128288EE93E0DA
:10333000A0E0B0E084839583A683B7838CE191E01D
:103340009183808385EC90E09587848784EC90E07E
:103350009787868780EC90E0918B808B81EC90E062
:10336000938B828B82EC90E0958B848B86EC90E043
:10337000978B868B118E128E138E148E08950E9459
:103380004E16E091DB02F091DC0282E08083E09156
:10339000D702F091D8021082E091D902F091DA02BE
:1033A0008FEC80831092E302E091DF02F091E00263
:1033B00086E08083E091DD02F091DE028081806111
:1033C0008083E091DD02F091DE028081886080835D
:1033D000E091DD02F091DE02808180688083E091DF
:1033E000DD02F091DE0280818F7D80831092BC022D
:1033F0001092BB021092C9021092CA020E947D155F
:1034000081E180935606809154060E947411609168
:1034100056068DEB92E00E94BE100E9471116AE088
:1034200070E080E090E00E94251983E08093A40280
:1034300080ED0E94B511853509F0BAC08AEA0E9474
:103440008C119093A6028093A5028CEA0E948C11A5
:103450009093A8028093A7028EEA0E948C11909309
:10346000AA028093A90280EB0E948C119093B6026D
:103470008093B50282EB0E948C119093B8028093E6
:10348000B70284EB0E948C119093BA028093B90228
:1034900086EB0E948C119093AC028093AB0288EB78
:1034A0000E948C119093AE028093AD028AEB0E9431
:1034B0008C119093B0028093AF028CEB0E948C1120
:1034C0009093B2028093B1028EEB0E948C11909384
:1034D000B4028093B30262E0809191020E94DE18F0
:1034E00080E398EFAFEFBFEF809395029093960241
:1034F000A0939702B093980260E08BE00E94DE18E0
:1035000061E08CE00E94DE1860E08DE00E94DE1831
:1035100060E08AE00E94DE1861E089E00E94DE1827
:1035200061E086E00E94DE1861E089E00E94921866
:1035300061E086E00E949218E8E3F6E011921192B1
:103540001192119286E0E435F807C1F7E0E2F6E067
:1035500088E396E011921192119211928E179F07B3
:10356000C9F788E194E028EA35E0AC01465F5F4F97
:10357000FC011192E417F507E1F78896281739073F
:10358000A1F70E942F016093140470931504809397
:1035900016049093170486E392E00E946311CDE134
:1035A000D1E10E9485012097E1F30E941D11F9CF1E
:1035B0001092010190CFEF920F931F93CF93DF935F
:1035C000E80147FD16C034E0042E000C550B57FFF0
:1035D00003C0519541955109E32E022F242FAE01CE
:1035E0000E94541BCE01DF91CF911F910F91EF905C
:1035F000089534E1E9CFF8940C948822BB274A302F
:1036000031F4992322F4BDE2909581959F4F0C945B
:103610003B1BBB272A3051F4992342F4BDE290951D
:103620008095709561957F4F8F4F9F4F0C94191B1C
:10363000BB27FA01A62F6217710581059105330B8F
:1036400030FB66F0AA27660F771F881F991FAA1FF5
:10365000A21710F0A21B63953850A9F7A05DAA33FA
:1036600008F0A95DA19336F7B111B1931082CA0198
:103670000C948F1DBB27FB015527AA27880F991F84
:10368000AA1FA41710F0A41B83955051B9F7A05D91
:10369000AA3308F0A95DA193009779F7B111B1930E
:1036A0001192CB010C948F1DA9E0B0E0EAE5FBE19B
:1036B0000C94D41E6A01F22EB02E2BE3201708F4CE
:1036C0004FC011E0100F012F27E0AE014F5F5F4F99
:1036D0000E94B71CBC013981832F8970813009F4A5
:1036E00041C0E1FC41C09E2D9170E0FC90E2AE2D06
:1036F000A071832F887033FF4AC0911137C083E0D7
:103700008F15B0F5F81AA11108C0F6018F2D20E22F
:10371000811130C0CF0CD11CF12C992329F0D60196
:103720009C93F60131966F01C6010396E2FE25C017
:103730002EE4D6012C9331E411963C931197129606
:103740002C93FC012F2D30E221111EC08F0D911DF5
:10375000DC011C928EEF9FEF2996ECE00C94F01E9A
:103760001CE3B1CF9DE2C3CF9BE2C1CF84E0C8CFC1
:10377000F12CC9CF21938150CBCF2EE6F6012083C7
:1037800031E631832283DDCF31932150DDCF232FEA
:10379000247032FF41C091112FC023E02F1510F487
:1037A0008F2D821BA11108C0F601282F30E22111B4
:1037B00025C0C80ED11C80E0992331F0F60190831A
:1037C00096012F5F3F4F690196012D5F3F4FE2FE4B
:1037D00018C099E4D6019C939EE411969C9311978E
:1037E00096E412969C93F901982F40E2911111C032
:1037F000280F311DD901ADCF24E0D0CF3193215016
:10380000D6CF99E6F60190839EE6918396E6928361
:10381000EACF41939150EACF41E050E0911102C0CC
:1038200040E050E0161617060CF075C0FB0131960B
:10383000E40FF51FBB2009F471C04B2D50E04F5F22
:103840005F4F4E0F5F1FEF2DF0E04E175F0714F430
:103850002F2D241B8E2D887141F4F601822F40E21A
:1038600081115FC0C20ED11C20E0992329F0F6011E
:103870009083C60101966C01A11108C0F601822F48
:1038800090E3811151C0C20ED11C20E0012F060F20
:103890009A81A32FA071AA2E34FF03C0913309F49B
:1038A000015010160CF043C0093008F008E0AB01DD
:1038B00077FF02C040E050E0FB013196E41BF50BBE
:1038C000A1E0B0E0AC0FBD1FEA0FFB1F3EE24B01D1
:1038D000801A91080B2D10E01195019511094F3FA9
:1038E000BFEF5B0721F4D6013C9311966D0164177D
:1038F0007507FCF084169506E4F480814150510967
:103900003196D60111967D0140175107A4F0D601DA
:103910008C936701E4CFE1E0F0E08ACF40E050E033
:1039200090CF419381509CCF91938150AACF01E0D9
:10393000BECF80E3E3CF6417750731F4963390F47C
:10394000953311F4AA2071F0F6018083F701822FDC
:1039500090E2811109C0F701E20FF11D108280E0B1
:1039600090E0FACE81E3F0CF91938150F2CF2830EE
:1039700008F027E03327DA01990F311D87FD9160A8
:1039800000966105710539F432602E5F3D9330E396
:103990002A95E1F708959F3F30F080387105610561
:1039A00009F03C5F3C5F3D93913008F08068911DC9
:1039B000DF93CF931F930F93FF92EF92192F987F6E
:1039C0009695E92F96959695E90FFF27EE53FF4FB1
:1039D00099273327EE24FF24A701E70105900894D7
:1039E000079428F4360FE71EF81E491F511D660F75
:1039F000771F881F991F0694A1F70590079428F454
:103A0000E70EF81E491F561FC11D770F881F991F0B
:103A1000661F0694A1F70590079428F4F80E491F35
:103A2000561FC71FD11D880F991F661F771F069449
:103A3000A1F70590079420F4490F561FC71FD81F00
:103A4000990F661F771F881F0694A9F78491109518
:103A5000177041F0D695C79557954795F794E79419
:103A60001A95C1F7E8E6F0E0689415901591359144
:103A70006591959105907FE27395E118F10A430BEA
:103A8000560BC90BD009C0F7E10CF11E431F561F9E
:103A9000C91FD01D7EF4703311F48A95E6CFE894E7
:103AA000015030F0080F0AF40027021708F4202F05
:103AB0002395022F7A3328F079E37D932A95E9F74D
:103AC00010C07D932A9589F606949795679537954A
:103AD00017951794E118F10A430B560BC90BD0093F
:103AE00098F023957E9173957A3308F070E37C9378
:103AF0002013B8F77E9170617D9330F0839571E368
:103B00007D9370E32A95E1F71124EF90FF900F91D8
:103B10001F91CF91DF91992787FD90950895DC0142
:103B2000FC01672F71917723E1F7329704C07C91F4
:103B30006D9370836291AE17BF07C8F308950E941A
:103B4000E11D08F481E00895E89409C097FB3EF474
:103B500090958095709561957F4F8F4F9F4F9923DA
:103B6000A9F0F92F96E9BB279395F6958795779558
:103B70006795B795F111F8CFFAF4BB0F11F460FF18
:103B80001BC06F5F7F4F8F4F9F4F16C0882311F070
:103B900096E911C0772321F09EE8872F762F05C084
:103BA000662371F096E8862F70E060E02AF09A951F
:103BB000660F771F881FDAF7880F9695879597F914
:103BC0000895990F0008550FAA0BE0E8FEEF1616AE
:103BD0001706E807F907C0F012161306E407F50701
:103BE00098F0621B730B840B950B39F40A2661F075
:103BF000232B242B252B21F408950A2609F4A14018
:103C0000A6958FEF811D811D08950E94181E0C94AA
:103C1000891E0E947B1E38F00E94821E20F0952390
:103C200011F00C94721E0C94781E11240C94BD1E7D
:103C30000E949A1E70F3959FC1F3950F50E0551F97
:103C4000629FF001729FBB27F00DB11D639FAA27F1
:103C5000F00DB11DAA1F649F6627B00DA11D661F40
:103C6000829F2227B00DA11D621F739FB00DA11D61
:103C7000621F839FA00D611D221F749F3327A00D1B
:103C8000611D231F849F600D211D822F762F6A2FB7
:103C900011249F5750409AF0F1F088234AF0EE0F1C
:103CA000FF1FBB1F661F771F881F91505040A9F749
:103CB0009E3F510580F00C94721E0C94BD1E5F3F18
:103CC000E4F3983ED4F3869577956795B795F79585
:103CD000E7959F5FC1F7FE2B880F911D96958795FD
:103CE00097F9089597F99F6780E870E060E008957C
:103CF0009FEF80EC089500240A9416161706180604
:103D00000906089500240A941216130614060506DF
:103D10000895092E0394000C11F4882352F0BB0F70
:103D200040F4BF2B11F460FF04C06F5F7F4F8F4FD3
:103D30009F4F089557FD9058440F551F59F05F3F0E
:103D400071F04795880F97FB991F61F09F3F79F0BD
:103D500087950895121613061406551FF2CF46953F
:103D6000F1DF08C0161617061806991FF1CF8695C1
:103D70007105610508940895E894BB2766277727A5
:103D8000CB0197F908950E94051FA59F900DB49F40
:103D9000900DA49F800D911D112408952F923F92A4
:103DA0004F925F926F927F928F929F92AF92BF924B
:103DB000CF92DF92EF92FF920F931F93CF93DF93F7
:103DC000CDB7DEB7CA1BDB0B0FB6F894DEBF0FBE54
:103DD000CDBF09942A88398848885F846E847D84A1
:103DE0008C849B84AA84B984C884DF80EE80FD80A3
:103DF0000C811B81AA81B981CE0FD11D0FB6F89419
:103E0000DEBF0FBECDBFED010895A29FB001B39FED
:103E1000C001A39F700D811D1124911DB29F700DD3
:103E2000811D1124911D08950F931F93CF93DF934C
:103E30008230910510F482E090E0E0915906F09113
:103E40005A0620E030E0A0E0B0E0309799F4211568
:103E5000310509F447C0281B390B24303105C0F562
:103E60008A819B816115710571F1FB0193838283C6
:103E7000FE0111C040815181028113814817590709
:103E8000F8F04817590799F4109761F012960C93BF
:103E9000129713961C933296CF01DF91CF911F9109
:103EA0000F9108950093590610935A06F4CF2115E7
:103EB000310519F04217530718F49A01BD01EF01BB
:103EC000DF01F801C2CF90935A0680935906D0CFF4
:103ED000FE01E20FF31F8193919322503109398340
:103EE0002883DACF2091570630915806232B41F4CE
:103EF0002091040130910501309358062093570614
:103F000020910201309103012115310541F42DB7B3
:103F10003EB74091060150910701241B350BE091FB
:103F20005706F0915806E217F307A0F42E1B3F0B3B
:103F30002817390778F0AC014E5F5F4F241735071B
:103F400048F04E0F5F1F50935806409357068193D9
:103F50009193A2CFE0E0F0E09FCFCF93DF93009763
:103F6000D1F0FC01329713821282A0915906B091D0
:103F70005A06109799F420813181820F931F209166
:103F80005706309158062817390709F066C0F09394
:103F90005806E0935706DF91CF910895ED0120E098
:103FA00030E0CE17DF0708F03FC04A815B819E01F9
:103FB00041155105B9F5E901FB83EA83499159910E
:103FC000C40FD51FEC17FD0761F480819181029623
:103FD000840F951FE90199838883828193819B8354
:103FE0008A83E0E0F0E012968D919C911397009700
:103FF000C9F52D913C911197CD010296820F931F27
:1040000020915706309158062817390721F6309726
:1040100061F510925A0610925906B0935806A09373
:104020005706B9CFEA01BDCFD383C2834081518106
:10403000840F951FC817D90761F44E5F5F4F8881C1
:104040009981480F591F518340838A819B819383B3
:1040500082832115310509F0AECFF0935A06E09323
:10406000590699CFFD01DC01BECF13821282D5CF54
:10407000A0E0B0E0EEE3F0E20C94D01E8C010097DB
:1040800051F4CB010E94141F8C01C801CDB7DEB7DB
:10409000E0E10C94EC1EFC01E60FF71F9C0122509E
:1040A0003109E217F30708F4A2C0D901CD91DC91E0
:1040B0001197C617D70798F0C530D10530F3CE0158
:1040C00004978617970708F3C61BD70B2297C1934F
:1040D000D1936D937C93CF010E94AD1FD6CF5B012E
:1040E000AC1ABD0A4C018C0E9D1EA0915906B091D0
:1040F0005A06E12CF12C412C512C109731F580916E
:104100005706909158068816990609F061C0E61680
:10411000F70608F05DC080910201909103010097BD
:1041200041F48DB79EB74091060150910701841B61
:10413000950BE817F90708F05AC0F0935806E0937A
:104140005706F90171836083A0CF8D919C911197DF
:1041500012966C90129713967C901397A815B90538
:1041600081F56C0142E0C40ED11CCA14DB0448F195
:10417000DC01AA19BB097D0142E0E40EF11C45E017
:10418000E416F10490F062827382B183A083D901B6
:104190006D937C933F014114510471F0D20112964A
:1041A0006C92129713967C9270CF22968C0F9D1F63
:1041B000F90191838083EFCF6092590670925A067D
:1041C00064CFE816F90608F47C012D01D30195CFE0
:1041D000CB010E94141F7C01009749F0AE01B80189
:1041E0000E94FA20C8010E94AD1F87014ECF00E057
:1041F00010E04BCFFB01DC0102C001900D92415059
:104200005040D8F70895FB01DC0101900D92002089
:10421000E1F708955058BB27AA270E9422210C9449
:10422000891E0E947B1E38F00E94821E20F039F405
:104230009F3F19F426F40C94781E0EF4E095E7FBEA
:104240000C94721EE92F0E949A1E58F3BA17620747
:1042500073078407950720F079F4A6F50C94BC1E2B
:104260000EF4E0950B2EBA2FA02D0B01B901900191
:104270000C01CA01A0011124FF27591B99F0593FD5
:1042800050F4503E68F11A16F040A22F232F342F1D
:104290004427585FF3CF469537952795A795F0406B
:1042A0005395C9F77EF41F16BA0B620B730B840B80
:1042B000BAF09150A1F0FF0FBB1F661F771F881F38
:1042C000C2F70EC0BA0F621F731F841F48F4879590
:1042D00077956795B795F7959E3F08F0B0CF939582
:1042E000880F08F09927EE0F9795879508950E94FB
:1042F0008B210C94891E0E94821E58F00E947B1E06
:1043000040F029F45F3F29F00C94721E51110C9477
:10431000BD1E0C94781E0E949A1E68F39923B1F377
:10432000552391F3951B550BBB27AA2762177307DB
:10433000840738F09F5F5F4F220F331F441FAA1F6F
:10434000A9F335D00E2E3AF0E0E832D0915050402B
:10435000E695001CCAF72BD0FE2F29D0660F771FD9
:10436000881FBB1F261737074807AB07B0E809F0BF
:10437000BB0B802DBF01FF2793585F4F3AF09E3F44
:10438000510578F00C94721E0C94BD1E5F3FE4F34F
:10439000983ED4F3869577956795B795F7959F5F87
:1043A000C9F7880F911D9695879597F90895E1E0D3
:1043B000660F771F881FBB1F621773078407BA0732
:1043C00020F0621B730B840BBA0BEE1F88F7E0958D
:1043D00008950E94F0216894B1110C94BD1E0895B7
:1043E0000E94A21E88F09F5798F0B92F9927B751C5
:1043F000B0F0E1F0660F771F881F991F1AF0BA9589
:10440000C9F714C0B13091F00E94BC1EB1E008950C
:104410000C94BC1E672F782F8827B85F39F0B93FFE
:10442000CCF3869577956795B395D9F73EF490953B
:104430008095709561957F4F8F4F9F4F08950E9493
:10444000E11D08F48FEF08950E94E11D880B990B80
:104450000895DB018F939F930E94C31EBF91AF917C
:10446000A29F800D911DA39F900DB29F900D1124CE
:104470000895A1E21A2EAA1BBB1BFD010DC0AA1FA5
:10448000BB1FEE1FFF1FA217B307E407F50720F0BD
:10449000A21BB30BE40BF50B661F771F881F991F38
:1044A0001A9469F760957095809590959B01AC0181
:1044B000BD01CF010895052E97FB1EF400940E94C4
:1044C000722257FD07D00E94392207FC03D04EF418
:1044D0000C94722250954095309521953F4F4F4F47
:1044E0005F4F089590958095709561957F4F8F4FA0
:1044F0009F4F0895B7FF0C94C31E0E94C31E821BDA
:10450000930B0895EE0FFF1F0590F491E02D099491
:1045100010E0CFEDD0E004C0FE010E94822221967F
:0A452000C03ED107C9F7F894FFCFA1
:10452A00010100005B06200000000000BE1091108F
:10453A00891073106110601000000000BC15251668
:10454A001111EF1003110316204D5156353A004D43
:10455A0051563A0020564D51323A0020564D5131AB
:10456A003A0020564D5132353A00204D43544D50B1
:10457A003A00204D435643433A002056494E3A00EA
:10458A00204C55583A002044544D503A0020444893
:10459A00554D3A002042544D503A0020425052455F
:1045AA003A00205244593A31204456473A313B0A9C
:1045BA0000205244593A30204456473A303B0A00C8
:1045CA004657205645523A2000312E302E330044A9
:1045DA00656275673A00207264746D705B005D5B9A
:1045EA00005D3D002064746D705B00206C746D701A
:1045FA005B000D0A006C6F6F705F693A2000726E83
:10460A00643A20005363616E6E696E672E2E2E0027
:10461A004932432061742030780030002020210084
:10462A0055206572726F72206174203078004E6F67
:10463A0020493243206465766963657320666F7525
:10464A006E640A00646F6E650A00696E66006F76B2
:10465A0066006E616E0053544152544F4B3A313BDF
:02466A0000004E
:00000001FF
