:100000000C94E0000C9408010C9408010C94080175
:100010000C9408010C9408010C9408010C9408013C
:100020000C9408010C9408010C9408010C9408012C
:100030000C9408010C9408010C9408010C9408011C
:100040000C94E71A0C9408010C945F180C9439185E
:100050000C9408010C9408010C9408010C940801FC
:100060000C94CD150C94080100407A10F35A00A0AE
:10007000724E18090010A5D4E80000E87648170071
:1000800000E40B54020000CA9A3B000000E1F505B1
:10009000000080969800000040420F000000A086FB
:1000A00001000000102700000000E803000000002D
:1000B0006400000000000A000000000001000000D1
:1000C00000002C76D888DC674F0823DFC1DFAE59EB
:1000D000E1B1B796E5E3E453C63AE651997696E87E
:1000E000E6C28426EB898C9B62ED407C6FFCEFBC02
:1000F0009C9F40F2BAA56FA5F490055A2AF75C932D
:100100006B6CF9676DC11BFCE0E40D47FEF520E662
:10011000B500D0ED902E0300943577050080841E45
:10012000080000204E0A000000C80C333333330FA0
:10013000986E12831141EF8D2114893BE65516CF3D
:10014000FEE6DB18D1844B381BF77C1D901DA4BB49
:10015000E424203284725E228100C9F124ECA1E5FE
:100160003D270000000023002600290000000000B9
:10017000240027002A0000000000250028002B0092
:10018000040404040404040402020202020203033D
:100190000303030301020408102040800102040845
:1001A00010200102040810200000000800020100D5
:1001B000000304070000000000000000421BC21CF6
:1001C00011241FBECFEFD8E0DEBFCDBF26E0A4E8EC
:1001D000B2E001C01D92A535B207E1F712E0A0E040
:1001E000B1E0E8E5F9E402C005900D92A438B1074A
:1001F000D9F710E0CFEDD0E004C02197FE010E94B6
:100200009924CE3DD107C9F70E94751B0C94121D8D
:100210000C9400004F925F926F927F928F929F9208
:10022000AF92BF92CF92DF92EF92FF920F931F9304
:10023000CF93DF93CDB7DEB7A2970FB6F894DEBFAA
:100240000FBECDBF8EE480937C0062E070E080E062
:1002500090E00E94901A80917A00806480937A00E6
:1002600080917A0086FDFCCF209178008091790002
:1002700030E0382B032E000C440B550B64EB7BE273
:1002800081E190E00E9472248091310690913206C3
:10029000A0913306B0913406820F931FA41FB51F9F
:1002A0008093310690933206A0933306B0933406C0
:1002B0008EE00E94E619092E000CAA0BBB0B4091A0
:1002C0003506509136066091370670913806840FD6
:1002D000951FA61FB71F8093350690933606A093EF
:1002E0003706B09338068FE00E94E619092E000CFD
:1002F000AA0BBB0B4091390650913A0660913B0620
:1003000070913C06840F951FA61FB71F8093390676
:1003100090933A06A0933B06B0933C0680E10E947E
:10032000E619092E000CAA0BBB0B40913D0650911B
:100330003E0660913F0670914006840F951FA61FF0
:10034000B71F80933D0690933E06A0933F06B0935F
:10035000400681E10E94E619092E000CAA0BBB0B96
:1003600040914106509142066091430670914406C7
:10037000840F951FA61FB71F8093410690934206D6
:10038000A0934306B093440688EC80937C00809150
:100390007A00806880937A0064E170E080E090E009
:1003A0000E94901A80917A00806480937A008091F4
:1003B0007A0086FDFCCF609178007091790080E032
:1003C00090E00E94BB1F2EEA37E242EA53E40E940B
:1003D000212326EF38E24CE95FE30E948E2320912F
:1003E00015063091160640911706509118060E9486
:1003F0002223609315067093160680931706909338
:100400001806809147068032D8F0823210F083328D
:10041000B9F4809145060E94DF12609147068EEB89
:1004200094E00E942A120E94DC12809147068332D7
:1004300009F051C060E170E080E090E00E94901A05
:1004400062E070E080914506909146060E94E912B4
:100450008EEB94E00E94DF1100E010E0182F8EEB8D
:1004600094E00E94DF11802B912BBC0180E090E092
:100470000E94BB1F2AE939E949E95FE30E948E2304
:100480000E94072480E090E00E94BB1F9B01AC010A
:100490006091190670911A0680911B0690911C06B6
:1004A0000E9422236093190670931A0680931B06FC
:1004B00090931C060E94D514882341F080919304E8
:1004C0008B3071F018F085518230B8F160E070E047
:1004D00080EC9FE70CC068E770E080E090E0AECF72
:1004E00060918D0470E080E090E00E94BB1F9B0152
:1004F000AC0160911D0670911E0680911F069091BF
:1005000020060E94222360931D0670931E0680938E
:100510001F06909320060E94D514882349F08091ED
:1005200093048B3059F120F08551823008F4C9C60C
:1005300060E070E080EC9FE728C060918D0470E07F
:1005400080E090E00E94BB1F20E030E040E853E4F0
:100550000E941C206B017C0160918E0470E080E0A1
:1005600090E00E94BD1FA70196010E9422232DEC5E
:100570003CEC4CEC5DE30E941C20B9CF60918F04F1
:1005800070E080E090E00E94BB1F9B01AC01609195
:1005900021067091220680912306909124060E94E4
:1005A0002223609321067093220680932306909362
:1005B000240680910001882309F4F9C10E94BD142A
:1005C0009C0140E050E08091BA049091BB04281B4C
:1005D000390B41095109A091B804B091B9040E94A6
:1005E000DA206B017C01BFE0F594E794D794C794BF
:1005F000BA95D1F76091B2047091B304072E000C44
:10060000880B990B1BE0660F771F881F991F1A959F
:10061000D1F72091B4043091B504032E000C440BA3
:10062000550B2C0D3D1D4E1D5F1D0E947224CA01ED
:10063000B9016C0D7D1D8E1D9F1D685F7F4F8F4F13
:100640009F4F04E095958795779567950A95D1F723
:100650000E94BD1F20E030E040E251E40E948E2362
:100660009B01AC01609125067091260680912706BA
:10067000909128060E9422236093250670932606F7
:1006800080932706909328060E94BD144C01A12C4C
:10069000B12C1091A5041295110F110F107C1C5C48
:1006A00087E70E94DF1264EF8EEB94E00E942A122B
:1006B000612F8EEB94E00E942A120E94DC1280913E
:1006C000A504811124C665E070E080E090E00E94FE
:1006D000901A86EF0E94F7126C01E12CF12CFE2C8F
:1006E000ED2CDC2CCC2488EF0E942013C82A10911A
:1006F000A5048091BA049091BB04A5019401281B24
:10070000390B41095109A091B804B091B9040E9474
:10071000DA202B013C01AFE075946794579447941D
:10072000AA95D1F76091B2047091B304072E000C22
:10073000880B990BBBE0660F771F881F991FBA952E
:10074000D1F72091B4043091B504032E000C440B72
:10075000550B240D351D461D571D0E947224420E57
:10076000531E641E751E20EA421A2FE0520A6108C9
:100770007108A3019201C301B2010E9440244B0100
:100780005C010CE0B594A794979487940A95D1F7EF
:10079000A091AA04B091AB040E9491249B01AC01EA
:1007A0008DE055954795379527958A95D1F72F8FE9
:1007B00038A349A35AA3A091AC04B091AD04A501FC
:1007C00094010E9491249C01552737FD5095452F97
:1007D0008F8D98A1A9A1BAA1280F391F4A1F5B1FAD
:1007E0002E5F3F4F4F4F5F4F62E0559547953795CE
:1007F00027956A95D1F730584F4F5F4FA091B604B7
:10080000B091B7040E94DA209B01AC017FE05695BD
:100810004795379527957A95D1F72F8F38A349A318
:100820005AA388E090E0811B910904C0F694E794F4
:10083000D794C7948A95D2F7A091AE04B091AF0433
:10084000A50194010E9491244B015C01EBE0B59459
:10085000A79497948794EA95D1F7A091A804B091B2
:10086000A904A30192010E949124FBE0959587952C
:1008700077956795FA95D1F7680D791D8A1D9B1DAF
:100880008090A6049090A704092C000CAA08BB082D
:10089000A2E0880C991CAA1CBB1CAA95D1F7680D74
:1008A000791D8A1D9B1D012E04C0660F771F881FAE
:1008B000991F0A94D2F76E5F7F4F8F4F9F4F24E0AE
:1008C00030E040E050E00E947224D701C601821B54
:1008D000930BA40BB50B9C01AD0160E573EC80E0BC
:1008E00090E004C096958795779567951A95D2F70D
:1008F0000E94402497FD1EC5660F771F881F991F11
:100900002F8D38A149A15AA10E94502469017A0172
:100910009927F7FC9A958F2D7E2D6D2D9B01AC01AB
:100920000E9440249B01AC01AEEDBBE00E94DA20A6
:100930004B015C01A3E4B3EEA70196010E9494244D
:10094000BC01992777FD9095892F4501BB2497FC21
:10095000B094AB2C680D791D8A1D9B1D6153714F9E
:100960008F4F9F4F44E095958795779567954A956A
:10097000D1F76C0D7D1D8E1D9F1D0E94BD1F2FE6A2
:1009800032E545E053E40E948E2320912906309100
:100990002A0640912B0650912C060E942223609338
:1009A000290670932A0680932B0690932C0620E04C
:1009B00030E048EC52E460912D0670912E06809153
:1009C0002F06909130060E94222360932D0670938B
:1009D0002E0680932F06909330066AEF70E080E039
:1009E00090E00E94901A8091890490918A04A091CD
:1009F0008B04B0918C046C017D01EFEFCE1ADE0AFE
:100A0000EE0AFE0A84369105A105B1050CF49FC4D7
:100A10008090850490908604A0908704B09088040C
:100A200060913106709132068091330690913406C0
:100A3000A70196010E947224CA01B90128EE33E091
:100A400040E050E00E947224CA01B9010E94BD1F1B
:100A50002B013C01F401EE0FFF1FEE0FFF1FEB55C2
:100A6000FD4F60837183828393838401065F1F4FF0
:100A7000000F111F000F111F0B551D4F6091350600
:100A8000709136068091370690913806A70196013D
:100A90000E947224CA01B9010E94BD1F20E030ECFF
:100AA0004FE754E40E948E23A30192010E941C2070
:100AB000D8016D937D938D939C93139784010C5E65
:100AC0001F4F000F111F000F111F0B551D4F60917D
:100AD000390670913A0680913B0690913C06A70139
:100AE00096010E947224CA01B9010E94BD1F20E034
:100AF00030EC4FE754E40E948E23A30192010E9440
:100B00001C20F80160837183828393838401025ED9
:100B10001F4F000F111F000F111F0B551D4F60912C
:100B20003D0670913E0680913F0690914006A701D8
:100B300096010E947224CA01B9010E94BD1F20E0E3
:100B400030EC4FE754E40E948E23A30192010E94EF
:100B50001C20D8016D937D938D939C9313978401F2
:100B6000085D1F4F000F111F000F111F0B551D4F68
:100B7000609141067091420680914306909144062F
:100B8000A70196010E947224CA01B9010E94BD1FEB
:100B900020E030EC4FE754E40E948E23A301920141
:100BA0000E941C202DEC3CEC4CE251E40E941C20E5
:100BB000F8016083718382839383C701B6010E9429
:100BC000BD1F6B017C0184010E5C1F4F000F111FC4
:100BD000000F111F0B551D4F9B01AC0160911506B5
:100BE0007091160680911706909118060E948E2328
:100BF000D8016D937D938D939C9313978401045C2E
:100C00001F4F000F111F000F111F0B551D4FA70184
:100C100096016091190670911A0680911B069091B9
:100C20001C060E948E23F801608371838283938364
:100C300084010A5B1F4F000F111F000F111F0B557E
:100C40001D4FA701960160911D0670911E068091AF
:100C50001F06909120060E948E23D8016D937D93EC
:100C60008D939C9313978401005B1F4F000F111FFE
:100C7000000F111F0B551D4FA70196016091210612
:100C80007091220680912306909124060E948E2363
:100C9000F8016083718382839383809100018823AC
:100CA000A9F18401065A1F4F000F111F000F111FD9
:100CB0000B551D4FA70196016091250670912606E0
:100CC00080912706909128060E948E23D8016D936B
:100CD0007D938D939C93139784010C591F4F000FA4
:100CE000111F000F111F0B551D4FA7019601609199
:100CF000290670912A0680912B0690912C060E945D
:100D00008E23F80160837183828393838401025967
:100D10001F4F000F111F000F111F0B551D4FA70173
:100D2000960160912D0670912E0680912F0690916C
:100D300030060E948E23D8016D937D938D939C93F2
:100D400013971092310610923206109233061092C9
:100D5000340610923506109236061092370610921D
:100D600038061092390610923A0610923B061092FD
:100D70003C0610923D0610923E0610923F061092DD
:100D800040061092410610924206109243061092BD
:100D9000440610921506109216061092170610922D
:100DA00018061092190610921A0610921B0610923D
:100DB0001C0610921D0610921E0610921F0610921D
:100DC00020061092210610922206109223061092FD
:100DD00024061092250610922606109227061092DD
:100DE00028061092290610922A0610922B061092BD
:100DF0002C0610922D0610922E0610922F0610929D
:100E000030061092890410928A0410928B0410927A
:100E10008C04BFEF8B1A9B0AAB0ABB0A8092850435
:100E200090928604A0928704B0928804EAE08E161D
:100E30009104A104B1045CF081E08093A4021092BB
:100E400085041092860410928704109288048CEC1A
:100E500094E00E947D12181619060CF01BC28CEC4F
:100E600094E00E945B128A3009F0DCC48091A402F5
:100E7000882309F482C285EA92E00E949712609367
:100E8000A0027093A1028093A2029093A3028DEC22
:100E900092E00E94971260939C0270939D0280934F
:100EA0009E0290939F0285EF92E00E9497126093BA
:100EB00098027093990280939A0290939B028DE11D
:100EC00093E00E9497126B017C0185E493E00E94FD
:100ED0009712609394027093950280939602909378
:100EE00097028DE693E00E949712609390027093B0
:100EF0009102809392029093930285E993E00E947D
:100F0000971260938C0270938D0280938E0290935F
:100F10008F0267E271E0CE0143960E94AB19809088
:100F2000980290909902A0909A02B0909B026EE273
:100F300071E0CE010D960E94AB1940909C0250903A
:100F40009D0260909E0270909F0265E371E0CE0169
:100F500001960E94AB19BE016F5F7F4FCE010796CD
:100F60000E94A219B301A201CE0107960E94BC18EB
:100F7000BE01635F7F4F0E946019B501A4010E940A
:100F8000BC18BE016D5E7F4F0E946019B701A601BB
:100F90000E94BC18BC018FE994E00E947319CE0135
:100FA00007960E949D19CE0101960E949D19CE01BF
:100FB0000D960E949D19CE0143960E949D190E9494
:100FC0009113C0909002D0909102E0909202F09024
:100FD00093026AE371E0CE0143960E94AB198090C0
:100FE000A0029090A102A090A202B090A30262E49D
:100FF00071E0CE010D960E94AB1940909402509082
:10100000950260909602709097026AE471E0CE01BA
:1010100001960E94AB19BE016F5F7F4FCE0107960C
:101020000E94A219B301A201CE0107960E94BC182A
:10103000BE01635F7F4F0E946019B501A4010E9449
:10104000BC18BE016D5E7F4F0E946019B701A601FA
:101050000E94BC18BC018FE994E00E947319CE0174
:1010600007960E949D19CE0101960E949D19CE01FE
:101070000D960E949D19CE0143960E949D190E94D3
:10108000911385E993E00E9497126B017C0160E562
:1010900071E0CE0101960E94AB19BE016F5F7F4FD8
:1010A000CE0107960E94A219B701A601CE010796AC
:1010B0000E94BC18BC018FE994E00E947319CE0114
:1010C00007960E949D19CE0101960E949D198DEBF5
:1010D00093E00E9497126B017C0120E030E048EC25
:1010E00052E40E94362418160CF43AC1C0928802C9
:1010F000D0928902E0928A02F0928B0285EE93E010
:101100000E9497126B017C0166E571E0CE010D969D
:101110000E94AB198090880290908902A0908A0268
:10112000B0908B026DE571E0CE0101960E94AB1983
:10113000BE016F5F7F4FCE0107960E94A219B501D5
:10114000A401CE0107960E94BC18BE01635F7F4FC9
:101150000E946019B701A6010E94BC180E94AF133B
:10116000CE0107960E949D19CE0101960E949D19FD
:10117000CE010D960E949D190E949113809100014D
:10118000882309F44FC08DE094E00E9497126B0110
:101190007C0185E394E00E9497126093840270932F
:1011A0008502809386029093870264E671E0CE0107
:1011B0000D960E94AB198090840290908502A090B9
:1011C0008602B09087026BE671E0CE0101960E9424
:1011D000AB19BE016F5F7F4FCE0107960E94A21927
:1011E000B501A401CE0107960E94BC18BE01635F41
:1011F0007F4F0E946019B701A6010E94BC18BC0174
:101200008FE994E00E947319CE0107960E949D1900
:10121000CE0101960E949D19CE010D960E949D1946
:101220000E949113C0908C02D0908D02E0908E02AB
:10123000F0908F0262E771E0CE0101960E94AB1937
:10124000BE016F5F7F4FCE0107960E94A219B701C2
:10125000A601CE0107960E94BC18BC018FE994E05C
:101260000E947319CE0107960E949D19CE01019626
:101270000E949D1967E771E0CE0101960E94AB19AB
:10128000CE0101960E94AF13CE0101960E949D19D6
:101290000E94A113A2960FB6F894DEBF0FBECDBF79
:1012A000DF91CF911F910F91FF90EF90DF90CF9042
:1012B000BF90AF909F908F907F906F905F904F9076
:1012C000089510918F04612F6F7770E080E090E0B7
:1012D0000E94BD1F20E030E040E853E40E941C2043
:1012E0006B017C016091900470E080E090E00E94CE
:1012F000BD1FA70196010E9422232DEC3CEC4CEC73
:101300005DE30E941C2017FF40C990583EC9813000
:1013100029F468E070E080E090E0D9C9823029F4D7
:101320006EE070E080E090E0D2C96AE170E080E0B9
:1013300090E0CDC92F8D38A149A15AA10E94502417
:1013400069017A01CC0CDD1CEE1CFF1CE1CAC092C5
:101350008904D0928A04E0928B04F0928C0477CDB9
:1013600080E090E0A8ECB2E4809388029093890238
:10137000A0938A02B0938B02C1CE60913D0670911A
:101380003E0680913F06909140062091890430915D
:101390008A0440918B0450918C040E94722469014C
:1013A0007A0167E271E0CE0143960E94AB19609129
:1013B000390670913A0680913B0690913C06209147
:1013C000890430918A0440918B0450918C040E94CE
:1013D000722449015A016EE271E0CE010D960E941D
:1013E000AB19609135067091360680913706909161
:1013F00038062091890430918A0440918B045091E1
:101400008C040E94722429013A0165E371E0CE0147
:1014100001960E94AB19BE016F5F7F4FCE01079608
:101420000E94A219B301A201CE0107960E94F318EF
:10143000BE01635F7F4F0E946019B501A4010E9445
:10144000F318BE016D5E7F4F0E946019B701A601BF
:101450000E94F318BC018FE994E00E947319CE0139
:1014600007960E949D19CE0101960E949D19CE01FA
:101470000D960E949D19CE0143960E949D190E94CF
:1014800091136091890470918A0480918B049091EA
:101490008C040E94BD1F9B01AC01609115067091E8
:1014A000160680911706909118060E948E236B01F4
:1014B0007C016AE371E0CE0143960E94AB19609112
:1014C0003106709132068091330690913406209156
:1014D000890430918A0440918B0450918C040E94BD
:1014E0007224CA01B9010E94BD1F20E030E04AE722
:1014F00054E40E948E234B015C0162E471E0CE0152
:101500000D960E94AB196091410670914206809140
:101510004306909144062091890430918A044091B9
:101520008B0450918C040E94722429013A016AE4D0
:1015300071E0CE0101960E94AB19BE016F5F7F4F33
:10154000CE0107960E94A219B301A201CE0107960F
:101550000E94F318BE01635F7F4F0E946019B501BE
:10156000A4010E94BC18BE016D5E7F4F0E946019ED
:10157000B701A6010E94BC18BC018FE994E00E944B
:101580007319CE0107960E949D19CE0101960E9403
:101590009D19CE010D960E949D19CE0143960E9481
:1015A0009D190E9491136091890470918A04809121
:1015B0008B0490918C040E94BD1F9B01AC01609133
:1015C000190670911A0680911B0690911C060E94C4
:1015D0008E236B017C0160E571E0CE0101960E94D3
:1015E000AB19BE016F5F7F4FCE0107960E94A21913
:1015F000B701A601CE0107960E94BC18BC018FE975
:1016000094E00E947319CE0107960E949D19CE01A5
:1016100001960E949D196091890470918A048091BD
:101620008B0490918C040E94BD1F9B01AC016091C2
:1016300021067091220680912306909124060E9433
:101640008E236B017C0166E571E0CE010D960E9450
:10165000AB196091890470918A0480918B049091F8
:101660008C040E94BD1F9B01AC0160911D0670910E
:101670001E0680911F06909120060E948E234B012A
:101680005C016DE571E0CE0101960E94AB19BE01CF
:101690006F5F7F4FCE0107960E94A219B501A4018A
:1016A000CE0107960E94BC18BE01635F7F4F0E9467
:1016B0006019B701A6010E94BC180E94AF13CE01A9
:1016C00007960E949D19CE0101960E949D19CE0198
:1016D0000D960E949D190E9491138091000188230C
:1016E00009F465C06091890470918A0480918B042B
:1016F00090918C040E94BD1F9B01AC016091250656
:101700007091260680912706909128060E948E23CC
:101710006B017C0164E671E0CE010D960E94AB196D
:101720006091890470918A0480918B0490918C045B
:101730000E94BD1F9B01AC016091290670912A0691
:1017400080912B0690912C060E948E234B015C0108
:101750006BE671E0CE0101960E94AB19BE016F5F8E
:101760007F4FCE0107960E94A219B501A401CE01B8
:1017700007960E94BC18BE01635F7F4F0E946019EC
:10178000B701A6010E94BC18BC018FE994E00E9439
:101790007319CE0107960E949D19CE0101960E94F1
:1017A0009D19CE010D960E949D190E949113609182
:1017B000890470918A0480918B0490918C040E941A
:1017C000BD1F9B01AC0160912D0670912E0680918A
:1017D0002F06909130060E948E236B017C0162E7F8
:1017E00071E0CE0101960E94AB19BE016F5F7F4F81
:1017F000CE0107960E94A219B701A601CE01079655
:101800000E94BC18BC018FE994E00E947319CE01BC
:1018100007960E949D19CE0101960E949D1960E8CD
:1018200071E02ACD843409F0E7C089E891E00E9494
:10183000CE1205EA12E0C12CD12C76015801412CC0
:10184000512C320180E991E00E948F13C701B6014B
:101850000E94B81388E991E00E948F13C301B2017E
:101860000E94B8138BE991E00E948F13D5016D910E
:101870007D918D919D915D010E94EA13BFEF4B1AFE
:101880005B0A6B0A7B0AEAE04E165104610471049C
:10189000C9F68EEA91E00E94CE12085D1F4FFFEF5D
:1018A000CF1ADF0AEF0AFF0A2CE0C216D104E104C6
:1018B000F10421F605E116E0C12CD12C76018EE968
:1018C00091E00E948F13C701B6010E94B8138BE903
:1018D00091E00E948F13D8016D917D918D919D9122
:1018E0008D010E94EA13BFEFCB1ADB0AEB0AFB0A59
:1018F000E7E0CE16D104E104F10409F701E316E0B4
:10190000C12CD12C760185EA91E00E948F13C7018A
:10191000B6010E94B8138BE991E00E948F13D801A1
:101920006D917D918D919D918D010E94B8138CEAEE
:1019300091E00E94B612BFEFCB1ADB0AEB0AFB0A5A
:10194000E4E0CE16D104E104F104E9F66DEA71E0B9
:10195000CE0149960E94AB1900918504109186042E
:101960006FEA71E0CE0143960E94AB196DEA71E017
:10197000CE010D960E94AB19E0908904F0908A0484
:1019800068EB71E0CE0101960E94AB19BE016F5F5A
:101990007F4FCE0107960E94A219B701CE0107968C
:1019A0000E942A19BE01635F7F4F0E946019BE0129
:1019B0006D5E7F4F0E946019B8010E942A19BE0116
:1019C000675E7F4F0E946019BC018FE994E00E941E
:1019D0007319CE0107960E949D19CE0101960E94AF
:1019E0009D19CE010D960E949D19CE0143960E942D
:1019F0009D19CE0149964ACC833509F04BCC8EEB2C
:101A000091E00E94CE126DEA71E0CE0149960E94EB
:101A1000AB1960913506709136068091370690912A
:101A200038062091890430918A0440918B045091AA
:101A30008C040E94722469017A0167EC71E0CE0186
:101A400043960E94AB196DEA71E0CE010D960E949B
:101A5000AB196091310670913206809133069091F6
:101A600034062091890430918A0440918B0450916E
:101A70008C040E94722449015A016FEC71E0CE017E
:101A800001960E94AB19BE016F5F7F4FCE01079692
:101A90000E94A219B501A401CE0107960E94F31875
:101AA000BE01635F7F4F0E946019BE016D5E7F4F74
:101AB0000E946019B701A6010E94F318BE01675E7B
:101AC0007F4F0E946019BC018FE994E00E94731956
:101AD000CE0107960E949D19CE0101960E949D1984
:101AE000CE010D960E949D19CE0143960E949D192C
:101AF000CE0149960E949D196DEA71E0CE0149968A
:101B00000E94AB1960913D0670913E0680913F06A0
:101B1000909140062091890430918A0440918B0471
:101B200050918C040E94722469017A0167ED71E082
:101B3000CE0143960E94AB196DEA71E0CE010D967D
:101B40000E94AB196091390670913A0680913B066C
:101B500090913C062091890430918A0440918B0435
:101B600050918C040E94722449015A016DED71E07C
:101B7000CE0101960E94AB19BE016F5F7F4FCE016F
:101B800007960E94A219B501A401CE0107960E94F2
:101B9000F318BE01635F7F4F0E946019BE016D5E46
:101BA0007F4F0E946019B701A6010E94F318BE0181
:101BB000675E7F4F0E9460190E94AF13CE010796A7
:101BC0000E949D19CE0101960E949D19CE010D968D
:101BD0000E949D19CE0143960E949D19CE014996FF
:101BE0000E949D196DEA71E0CE0149960E94AB19E1
:101BF0006091890470918A0480918B0490918C0487
:101C00000E94BD1F9B01AC016091150670911606E4
:101C100080911706909118060E948E236B017C011B
:101C200063EE71E0CE0143960E94AB196DEA71E05C
:101C3000CE010D960E94AB1960914106709142064B
:101C400080914306909144062091890430918A0442
:101C500040918B0450918C040E94722449015A01D6
:101C60006BEE71E0CE0101960E94AB19BE016F5F71
:101C70007F4FCE0107960E94A219B501A401CE01A3
:101C800007960E94F318BE01635F7F4F0E946019A0
:101C9000BE016D5E7F4F0E946019B701A6010E94D0
:101CA000BC18BE01675E7F4F0E9460190E94AF138F
:101CB000CE0107960E949D19CE0101960E949D19A2
:101CC000CE010D960E949D19CE0143960E949D194A
:101CD000CE0149960E949D196DEA71E0CE014996A8
:101CE0000E94AB196091890470918A0480918B04E1
:101CF00090918C040E94BD1F9B01AC0160911D0658
:101D000070911E0680911F06909120060E948E23DE
:101D10006B017C0161EF71E0CE0143960E94AB192B
:101D20006DEA71E0CE010D960E94AB1960918904B5
:101D300070918A0480918B0490918C040E94BD1F45
:101D40009B01AC016091190670911A0680911B06E7
:101D500090911C060E948E234B015C016BEF71E099
:101D6000CE0101960E94AB19BE016F5F7F4FCE017D
:101D700007960E94A219B501A401CE0107960E9400
:101D8000BC18BE01635F7F4F0E946019BE016D5E8B
:101D90007F4F0E946019B701A6010E94BC18BE01C6
:101DA000675E7F4F0E9460190E94AF13CE010796B5
:101DB0000E949D19CE0101960E949D19CE010D969B
:101DC0000E949D19CE0143960E949D19CE0149960D
:101DD0000E949D196DEA71E0CE0149960E94AB19EF
:101DE0006091890470918A0480918B0490918C0495
:101DF0000E94BD1F9B01AC016091250670912606D3
:101E000080912706909128060E948E236B017C0109
:101E100061E072E0CE0143960E94AB196DEA71E079
:101E2000CE010D960E94AB196091890470918A04CD
:101E300080918B0490918C040E94BD1F9B01AC018A
:101E400060912106709122068091230690912406CC
:101E50000E948E234B015C016BE072E0CE01019683
:101E60000E94AB19BE016F5F7F4FCE0107960E94A3
:101E7000A219B501A401CE0107960E94BC18BE01AB
:101E8000635F7F4F0E946019BE016D5E7F4F0E94AD
:101E90006019B701A6010E94BC18BE01675E7F4FA2
:101EA0000E9460190E94AF13CE0107960E949D19EF
:101EB000CE0101960E949D19CE010D960E949D199A
:101EC000CE0143960E949D19CE0149960E949D190C
:101ED0006DEA71E0CE010D960E94AB196091890404
:101EE00070918A0480918B0490918C040E94BD1F94
:101EF0009B01AC016091290670912A0680912B0606
:101F000090912C060E948E236B017C0165E172E0AA
:101F1000CE0101960E94AB19BE016F5F7F4FCE01CB
:101F200007960E94A219B701A601CE0107960E944A
:101F3000BC18BE01635F7F4F0E9460190E94AF13FF
:101F4000CE0107960E949D19CE0101960E949D190F
:101F5000CE010D960E949D196DEA71E0CE01499661
:101F60000E94AB1900918504109186046FEA71E01C
:101F7000CE0143960E94AB196DEA71E0CE010D9639
:101F80000E94AB19E0908904F0908A046FE172E03E
:101F9000CE0101960E94AB19BE016F5F7F4FCE014B
:101FA00007960E94A219B701CE0107960E942A192E
:101FB000BE01635F7F4F0E946019BE016D5E7F4F5F
:101FC0000E946019B8010E942A19BE01675E7F4F06
:101FD0000E9460190E94AF13CE0107960E949D19BE
:101FE000CE0101960E949D19CE010D960E949D1969
:101FF000CE0143960E949D19CE0149960E949D19DB
:102000001092310610923206109233061092340666
:102010001092350610923606109237061092380646
:102020001092390610923A0610923B0610923C0626
:1020300010923D0610923E0610923F061092400606
:1020400010924106109242061092430610924406E6
:102050001092150610921606109217061092180686
:102060001092190610921A0610921B0610921C0666
:1020700010921D0610921E0610921F061092200646
:102080001092210610922206109223061092240626
:102090001092250610922606109227061092280606
:1020A0001092290610922A0610922B0610922C06E6
:1020B0001092890410928A0410928B0410928C045E
:1020C0000E94A11386E292E00E94CE12C12CD12C74
:1020D0007601C39400E010E0FFE7CF16D104E104DD
:1020E000F104E1F18C2D0E94DF120E94DC128111BB
:1020F0001DC082E392E00E948F1320E1C216D1043A
:1021000024F48CE392E00E948F1340E1C701B601F2
:102110000E943F138EE392E00E94CE120F5F1F4F8A
:102120004FEFC41AD40AE40AF40AD6CF8430C1F7B8
:1021300082E492E00E948F1330E1C316D10424F4AC
:102140008CE392E00E948F1340E1C701B6010E9428
:102150003F138CEA91E00E94B612E2CF012B29F4E2
:1021600080E592E00E94CE1295C886E692E0FACF12
:10217000613208F048C09091F4059111FCCF92E0D3
:102180009093F4054093F3059FEF9093F20510921E
:10219000F1056093F005A5EFB5E0E0EDF5E090E026
:1021A00069132BC01092CF059091CF05880F892B12
:1021B0008093CF058091CE05813019F51092CE0520
:1021C0008091CF058093BB008091BC0083FDF8CF48
:1021D00085EC8093BC008091F4058230E1F380911E
:1021E000F2058F3F91F08091F205803281F080916D
:1021F000F205803371F084E008952D9121939F5F63
:10220000CFCF85EEE6CF81E0089580E0089582E0AB
:10221000089583E00895482F6091CB048091CD0507
:102220000E94B8101092CA041092CB041092CC05F0
:102230000895613208F043C09091F4059111FCCFEC
:1022400091E09093F4059093F3052FEF2093F2051E
:102250001092F105260F2093F0059093CF059091F1
:10226000CF05880F892B8093CF058091CE058130D3
:1022700001F51092CE058091CF058093BB0080912F
:10228000BC0083FDF8CF85EC8093BC008091F40501
:102290008130E1F38091F105861710F46091F1052A
:1022A000E0EDF5E0ACEAB5E080E0861304C0862FEF
:1022B000089585EEE9CF91919D938F5FF6CF60E011
:1022C000F6CF8F929F92AF92BF92CF92DF92EF9212
:1022D000FF92CF93DF93A09194048823A9F13A2F22
:1022E0008091950490E0880F991FAC014E595E4F84
:1022F000C0909A04D0909B04E0909C04F0909D04C0
:1023000060E070E0CB01FA01C591D49128812A23C5
:1023100023130FC04B015C012FEF821A920AA20A0D
:10232000B20A6C157D058E059F0580F060E070E0B7
:10233000CB01DF91CF91FF90EF90DF90CF90BF90D6
:10234000AF909F908F90089530E0CACFC501B4013F
:10235000DACF85ED8093BC008091BC0084FDFCCF7A
:102360001092F4050895613298F42091F405243018
:1023700089F460938905282FA9E6B5E0FC018E2F2A
:10238000821B861710F080E0089581918D93F7CF1E
:1023900081E0089582E0089508958091BD0490E061
:1023A0002091BC0430E08217930734F484559A4F8F
:1023B000FC01808190E008958FEF9FEF08952091B8
:1023C000BD04822F90E04091BC0450E08417950733
:1023D0004CF484559A4FFC01808190E02F5F20934C
:1023E000BD0408958FEF9FEF08958091BC0490E0A5
:1023F0002091BD04821B91090895CF92DF92EF9244
:10240000FF920F931F93CF93DF937C01CB018A013F
:102410002091CC05222389F0EB016B01C40ED51E5F
:10242000CC15DD0569F06991D701ED91FC91019022
:10243000F081E02DC7010995F3CF642F0E94B311FD
:10244000C801DF91CF911F910F91FF90EF90DF9026
:10245000CF900895CF93DF931F92CDB7DEB76983F6
:102460002091CC05222309F12091CB0430E02032C9
:1024700031055CF021E030E0FC013383228380E011
:1024800090E00F90DF91CF9108958091CA04E82FDA
:10249000F0E0EB50FA4F998190838F5F8093CA04EC
:1024A0008093CB0481E090E0ECCF61E0CE01019617
:1024B0000E94B311F7CFFC01918D828D981761F0C6
:1024C000828DDF01A80FB11D5D968C91928D9F5F6B
:1024D0009F73928F90E008958FEF9FEF0895FC0116
:1024E000918D828D981731F0828DE80FF11D858DC9
:1024F00090E008958FEF9FEF0895FC01918D228D5C
:10250000892F90E0805C9F4F821B91098F739927E0
:10251000089584EF97E1892B49F080E090E0892BC2
:1025200029F00E94F41781110C94000008950F9374
:102530001F93CF93DF93EC018C01085D1F4F60E088
:1025400070E0CB0129913991499159910E94222340
:10255000C017D107B9F720E030E040E251E40E9413
:102560008E23DF91CF911F910F910895009799F0DD
:10257000FC0101900020E9F73197AF01481B590B8E
:10258000E091CC04F091CD040280F381E02DBC01F8
:102590008CEC94E0099480E090E00895CF93DF9371
:1025A0000E94B612EC018CEA91E00E94B6128C0FE8
:1025B0009D1FDF91CF91089581E00C940B1191E064
:1025C0009093CC058093CD051092CA041092CB0451
:1025D00008959B0133272132310514F060E270E049
:1025E0000E9419111092BD048093BC040895CF93EA
:1025F000DF93C82F87E70E94DF126C2F8EEB94E0E9
:102600000E942A120E94DC1287E70E94DF1262E019
:1026100070E087E790E00E94E9128EEB94E00E9460
:10262000DF11D82F80E0C82F8EEB94E00E94DF11DD
:10263000C82BD92B0E94DC12CE01DF91CF910895D7
:10264000CF93C82F87E70E94DF126C2F8EEB94E0A8
:102650000E942A120E94DC1287E70E94DF1261E0CA
:1026600070E087E790E00E94E9128EEB94E00E9410
:10267000DF11C82F0E94DC128C2FCF9108958F920A
:102680009F92AF92BF92EF92FF920F931F93CF93BF
:10269000DF93CDB7DEB7A1970FB6F894DEBF0FBEBC
:1026A000CDBF162F042F19A2242F30E02230310580
:1026B0000CF40AE07E0121E2E20EF11C802E912C46
:1026C000A12CB12C612FA50194010E945024029FDE
:1026D0001019112481E0E81AF1081A30F4F4105DA1
:1026E000F7011083122F732FCA01232B242B252BC4
:1026F00049F7C7010E94B612A1960FB6F894DEBF43
:102700000FBECDBFDF91CF911F910F91FF90EF9042
:10271000BF90AF909F908F900895195CE1CF0C947B
:10272000B612EFE9F4E04481558160817181E09156
:10273000CC04F091CD040280F381E02D8CEC94E088
:102740000994CF93DF930E949113EC018CEA91E0FE
:102750000E94B6128C0F9D1FDF91CF910895FC014E
:1027600044815581608171818FE994E00C949118C6
:10277000CF92DF92EF92FF92CF93DF936B017C01B8
:1027800097FF1FC0E091CC04F091CD040190F0813F
:10279000E02D6DE28CEC94E00995EC01662777273B
:1027A000CB016C197D098E099F094AE00E943F13F5
:1027B0008C0F9D1FDF91CF91FF90EF90DF90CF9016
:1027C00008954AE0DF91CF91FF90EF90DF90CF9096
:1027D0000C943F134F925F926F927F928F929F92D1
:1027E000AF92BF92CF92DF92EF92FF926B017C018A
:1027F0009B01AC010E943B24882309F49FC084E71D
:1028000092E0B7C02FEF3FEF4FE75FE4C701B6019B
:102810000E94362418161CF480E792E0AAC02FEF1D
:102820003FEF4FE75FECC701B6010E94B61F87FD7F
:10283000F3CF20E030E0A901C701B6010E94B61F26
:1028400087FF79C0E091CC04F091CD040190F08134
:10285000E02D6DE28CEC94E009955C01F7FAF094C0
:10286000F7F8F0942AE037ED43EA5BE3C701B601DD
:102870000E9422232B013C010E9407246B017C0152
:102880000E94BB1F9B01AC01C301B2010E94212326
:102890002B013C014AE0C701B6010E943F137C01B5
:1028A00080E392E00E94B612EA0CFB1CE80EF91ECF
:1028B00020E030E040E251E4C301B2010E941C205C
:1028C0002B013C010E9400244B01770FAA08BB0892
:1028D000C501B4010E94B813E80EF91EC501B40188
:1028E0000E94BD1F9B01AC01C301B2010E942123C4
:1028F00020E030E040E251E40E941C200E940024CD
:10290000072E000C880B990B0E94B813E80EF91ED5
:102910008CEA91E00E94B6128E0D9F1DFF90EF9001
:10292000DF90CF90BF90AF909F908F907F906F90EF
:102930005F904F900895A12CB12C94CF4601570180
:10294000E894B7F82FEF3FEF4FE75FE7C501B40119
:102950000E943B24811156CF2FEF3FEF4FE75FE7F7
:10296000C501B4010E94B61F18160CF04BCF8CE6BF
:1029700092E00E94B6127C01CBCF87E70E94DF1263
:1029800064EF8EEB94E00E942A126EE28EEB94E0EC
:102990000E942A120E94DC1265E070E080E090E064
:1029A0000E94901A86EF0C94F712CF92DF92EF926A
:1029B000FF920F931F93CF93DF93CDB7DEB7C05431
:1029C000D1400FB6F894DEBF0FBECDBF0E94DB1A18
:1029D00000919604109197042091980430919904E5
:1029E0006B017C01C01AD10AE20AF30A40EDC41659
:1029F00047E0D406E104F10490F480919E04C05CA9
:102A0000DE4F0FB6F894DEBF0FBECDBFDF91CF9182
:102A10001F910F91FF90EF90DF90CF9008956093FA
:102A2000960470939704809398049093990410925D
:102A300091041092900410928F0410928E041092C0
:102A40008D0461E0809192040E94FD196AEF70E0AC
:102A500080E090E00E94901A61E0809192040E94D0
:102A6000491A60E0809192040E94FD1964E170E0CF
:102A700080E090E00E94901AF89461E080919204C6
:102A80000E94FD1988E290E00E94851A62E0809120
:102A900092040E94491A8AE090E00E94851A80E020
:102AA0000E946111672B682B692B29F410929E04F8
:102AB000789480E0A4CF81E00E946111672B682B9D
:102AC000692BA1F38E010F5F1F4F6E018FEBC81AA8
:102AD0008EEFD80A780180E00E946111F7016083CF
:102AE00071838283938381E00E946111F701648383
:102AF000758386839783F8E0EF0EF11CEC14FD04D8
:102B000051F7789420E030E0F801C080D180E28075
:102B1000F3804481558166817781C114D104E10439
:102B2000F10429F0411551056105710519F4109260
:102B30009E04BFCFF90183E0F595E7958A95E1F70B
:102B4000E357FB4F8081880FC416D506E606F706CB
:102B500010F180832F5F3F4F085F1F4F28323105F0
:102B600099F62091910430E040918D0480918E047B
:102B700090E0840F911D40918F04840F911D40912E
:102B80009004840F911D99272817390781F681E059
:102B900080939E0434CF8160DCCF1F920F920FB6DA
:102BA0000F9211242F933F934F935F936F937F93D3
:102BB0008F939F93AF93BF93EF93FF938091B9004F
:102BC000887F803609F44AC0F0F5883209F4A5C040
:102BD00018F5803109F499C0B8F4882309F4F5C0D8
:102BE000883009F492C0FF91EF91BF91AF919F910E
:102BF0008F917F916F915F914F913F912F910F90A6
:102C00000FBE0F901F901895883109F486C080324E
:102C100051F78093F20514C0803409F49BC040F44E
:102C20008033B9F38833F9F68093F20585ECAEC0B2
:102C3000803509F483C0883509F494C0883499F646
:102C40000E94A911D0CF883909F48AC038F5883795
:102C500029F050F4883611F0803729F683E080930C
:102C6000F4051092AB0555C0883809F479C0803955
:102C700019F0803809F0B7CF8091AB05803208F0A9
:102C80006FC0E091AB0581E08E0F8093AB05809122
:102C9000BB00F0E0E557FA4F80833BC0803B39F042
:102CA000D0F4803A09F477C0883A09F09CCF84E0E8
:102CB0008093F40510928A0510928905E0E0F0E017
:102CC00009958091890581110FC081E08093890564
:102CD0001092690509C0803C09F4A8CF883C09F42A
:102CE000A5CF883B09F07FCFE0918A0581E08E0F68
:102CF00080938A05F0E0E759FA4F80818093BB000A
:102D000090918A058091890529C08091CF05809393
:102D1000BB0085EC8093BC0066CF9091F10580915B
:102D2000F005981758F5E091F10581E08E0F80933A
:102D3000F105F0E0E053FA4F8081E9CFE091F10531
:102D400081E08E0F8093F1058091BB00F0E0E053AD
:102D5000FA4F80839091F1058091F0059817C8F2A1
:102D600085E8D8CFE091F10581E08E0F8093F105E1
:102D70008091BB00F0E0E053FA4F80838091F3052F
:102D800081115ECF81E08093CE0584EA8093BC0000
:102D90001092F40528CF85EC8093BC001092F405C6
:102DA0008091AB05803230F4E091AB05F0E0E5575F
:102DB000FA4F10826091AB0570E08BE895E0E0E09F
:102DC000F0E009951092AB050ECF1092F20538CFC6
:102DD0001092F40581E08093F3051092CE0561E036
:102DE00082E10E94FD1961E083E10E94FD19E9EB97
:102DF000F0E080818E7F808380818D7F808388E476
:102E00008093B80085E48093BC000895FC01848D14
:102E1000DF01A80FB11DA35ABF4F2C91848D90E004
:102E200001968F739927848FA689B7892C93A089DF
:102E3000B1898C9180648C93938D848D981306C096
:102E40000288F389E02D80818F7D80830895EF9241
:102E5000FF920F931F93CF93DF93EC01F62E81E047
:102E6000888F9B8D8C8D981305C0E889F9898081A6
:102E700085FD2CC00B8D10E00F5F1F4F0F731127C6
:102E8000E02E8C8DE8120CC00FB607FCFACFE88953
:102E9000F989808185FFF5CFCE010E940617F1CF19
:102EA0008B8DFE01E80FF11DE35AFF4FF0820B8F6F
:102EB000EA89FB8980818062808381E090E0DF91F4
:102EC000CF911F910F91FF90EF900895EE89FF89A8
:102ED0006083E889F98980818064EECFCF93DF93A6
:102EE000EC01888D882351F0EA89FB89808185FD7A
:102EF00008C0A889B9898C9186FF03C0DF91CF9162
:102F000008950FB607FCF2CF808185FFEFCFE889E7
:102F1000F989808185FFE8CFCE010E940617E4CFB2
:102F2000CF92DF92EF92FF920F931F93CF93DF9395
:102F30007C016A018B01C0E0D0E0CC15DD0579F0A1
:102F4000D8016D918D01D701ED91FC910190F08137
:102F5000E02DC7010995892B11F02196EECFCE0106
:102F6000DF91CF911F910F91FF90EF90DF90CF9065
:102F70000895789484B5826084BD84B5816084BDF1
:102F800085B5826085BD85B5816085BDEEE6F0E0E2
:102F9000808181608083E1E8F0E01082808182603E
:102FA0008083808181608083E0E8F0E080818160BF
:102FB0008083E1EBF0E0808184608083E0EBF0E0EF
:102FC000808181608083EAE7F0E080818460808393
:102FD000808182608083808181608083808180683D
:102FE00080831092C10008958CEC94E00E947D12C1
:102FF00021E0892B09F420E0822F08950F931F937D
:10300000CF93DF93EC018B0188819981009759F070
:103010002A813B812617370730F081E0DF91CF917D
:103020001F910F910895B8016F5F7F4F0E944F224B
:10303000009759F0998388831B830A832C813D81F3
:10304000232B59F7FC011082E8CF80E0E7CFCF9324
:10305000DF93EC0188819981009711F00E94C421CF
:10306000198218821D821C821B821A82DF91CF91E5
:1030700008951F920F920FB60F9211242F933F9332
:103080004F935F936F937F938F939F93AF93BF9370
:10309000EF93FF938CEC94E00E940617FF91EF9161
:1030A000BF91AF919F918F917F916F915F914F9160
:1030B0003F912F910F900FBE0F901F9018951F9268
:1030C0000F920FB60F9211242F938F939F93EF932C
:1030D000FF93E091DC04F091DD048081E091E20453
:1030E000F091E30482FD1BC090818091E5048F5F25
:1030F0008F732091E604821741F0E091E504F0E03F
:10310000E453FB4F958F8093E504FF91EF919F91DE
:103110008F912F910F900FBE0F901F901895808167
:10312000F4CFEF92FF920F931F93CF93DF93EC01B5
:103130007B01672B41F480E0DF91CF911F910F91CC
:10314000FF90EF90089541155105A1F00C811D816C
:10315000040F151FB8010E94FE17882361F3288110
:1031600039818C819D81B701820F931F0E941A23A0
:103170001D830C8381E0E0CFEF92FF920F931F93AA
:10318000CF93DF93CDB7DEB764970FB6F894DEBF69
:103190000FBECDBF7C01CB01BA018E010F5F1F4F67
:1031A00022E044E00E94F21CFC0101900020E9F7BB
:1031B0003197AF01481B590BBC01C7010E94911800
:1031C000811103C0C7010E942718C70164960FB67A
:1031D000F894DEBF0FBECDBFDF91CF911F910F914D
:1031E000FF90EF900895EF92FF920F931F93CF936C
:1031F000DF93CDB7DEB72E970FB6F894DEBF0FBEC4
:10320000CDBF7C01CB01BA012AE08E010F5F1F4FB9
:10321000A8010E94201DF80101900020E9F73197D4
:10322000AF01401B510BB801C7010E9491188111D9
:1032300003C0C7010E942718C7012E960FB6F89445
:10324000DEBF0FBECDBFDF91CF911F910F91FF90D9
:10325000EF900895EF92FF920F931F93CF93DF9318
:10326000CDB7DEB728970FB6F894DEBF0FBECDBF3F
:103270007C01CB014AE08E010F5F1F4FB8010E9415
:10328000151DF80101900020E9F73197AF01401BAF
:10329000510BB801C7010E949118811103C0C701E9
:1032A0000E942718C70128960FB6F894DEBF0FBEFC
:1032B000CDBFDF91CF911F910F91FF90EF900895B7
:1032C000CF93DF93EC01FB014481558160817181D3
:1032D0000E949118811103C0CE010E942718CE01CF
:1032E000DF91CF910895EF92FF920F931F93CF93A9
:1032F000DF93EC018617970781F0FB0100811181B4
:103300000115110539F0E480F580B7010E94FE1720
:1033100081110BC0CE010E942718CE01DF91CF9101
:103320001F910F91FF90EF900895FD82EC82B801FC
:10333000888199810E941A23F0CFFC0180819181BC
:103340000C94C421FC011182108213821282158216
:1033500014820C947319EF92FF920F931F93CF93E3
:10336000DF93EC017B01198218821B821A821D8275
:103370001C826115710519F1FB0101900020E9F72C
:1033800031978F01061B170BB8010E94FE178111A0
:1033900009C0CE01DF91CF911F910F91FF90EF9067
:1033A0000C9427181D830C83B70188819981DF91C4
:1033B000CF911F910F91FF90EF900C941A23DF9102
:1033C000CF911F910F91FF90EF9008958E3008F0EC
:1033D0008E508770806480937C0080917A00806436
:1033E00080937A0080917A0086FDFCCF80917800EE
:1033F0002091790090E0922B089590E0FC01E8552F
:10340000FE4F3491FC01EC56FE4F2491FC01E05834
:10341000FE4FE491EE23C9F0332339F0333001F14C
:10342000A8F4313019F1323029F1F0E0EE0FFF1F2E
:10343000EA58FE4FA591B4918FB7F894EC916111C1
:1034400026C020952E232C938FBF08953730A9F0E6
:103450003830C9F0343049F7809180008F7D03C047
:10346000809180008F7780938000DFCF84B58F7745
:1034700084BDDBCF84B58F7DFBCF8091B0008F778B
:103480008093B000D2CF8091B0008F7DF9CF2E2BEA
:10349000DACFCF93DF9390E0FC01EC56FE4F2491FE
:1034A00080589E4FFC0184918823C9F090E0880FDA
:1034B000991FFC01E459FE4FA591B491FC01EA5813
:1034C000FE4FC591D49161110DC09FB7F8948C91B6
:1034D000209582238C938881282328839FBFDF91A6
:1034E000CF910895623051F49FB7F8943C91822FA8
:1034F000809583238C93E8812E2BEFCF8FB7F894A0
:10350000EC912E2B2C938FBFEACF8230910538F0AF
:10351000880F991F880F991F05970197F1F7089554
:10352000CF92DF92EF92FF92CF93DF936B017C01FA
:103530000E94B61AEB01C114D104E104F10439F47C
:10354000DF91CF91FF90EF90DF90CF9008950E9490
:10355000B61A6C1B7D0B683E734068F381E0C81A95
:10356000D108E108F108C851DC4FE5CF3FB7F89426
:1035700080914D0690914E06A0914F06B091500655
:1035800026B5A89B05C02F3F19F00196A11DB11DBE
:103590003FBFBA2FA92F982F8827BC01CD01620FFA
:1035A000711D811D911D42E0660F771F881F991FB5
:1035B0004A95D1F708952FB7F89460914906709114
:1035C0004A0680914B0690914C062FBF08951F929A
:1035D0000F920FB60F9211242F933F938F939F93C7
:1035E000AF93BF938091490690914A06A0914B06F4
:1035F000B0914C063091480623E0230F2D3758F543
:103600000196A11DB11D2093480680934906909311
:103610004A06A0934B06B0934C0680914D069091BC
:103620004E06A0914F06B09150060196A11DB11D06
:1036300080934D0690934E06A0934F06B09350068C
:10364000BF91AF919F918F913F912F910F900FBE9E
:103650000F901F90189526E8230F0296A11DB11D0B
:10366000D2CFEEEBF4E01382128288EE93E0A0E07A
:10367000B0E084839583A683B7838BE091E0918348
:10368000808308950E94311B0E94481B0C94C61C25
:10369000ECECF4E01382128288EE93E0A0E0B0E05C
:1036A00084839583A683B7838BE191E091838083A4
:1036B00085EC90E09587848784EC90E097878687F7
:1036C00080EC90E0918B808B81EC90E0938B828BEF
:1036D00082EC90E0958B848B86EC90E0978B868BC8
:1036E000118E128E138E148E08950E94B917E091D8
:1036F000DC04F091DD0482E08083E091D804F09155
:10370000D9041082E091DA04F091DB048FEC80831D
:103710001092E404E091E004F091E10486E08083FB
:10372000E091DE04F091DF04808180618083E0918C
:10373000DE04F091DF04808188608083E091DE0404
:10374000F091DF04808180688083E091DE04F09155
:10375000DF0480818F7D80831092BD041092BC04B1
:103760001092CA041092CB040E94E81681E2809362
:103770004706809145060E94DF12609147068EEB56
:1037800094E00E942A120E94DC126AE070E080E05D
:1037900090E00E94901A83E08093A50480ED0E943F
:1037A0002013853509F0EBC08AEA0E94F712909346
:1037B000A7048093A6048CEA0E94F7129093A904B0
:1037C0008093A8048EEA0E94F7129093AB04809332
:1037D000AA0480EB0E94F7129093B7048093B6047A
:1037E00082EB0E94F7129093B9048093B80484EBA3
:1037F0000E94F7129093BB048093BA0486EB0E9458
:10380000F7129093AD048093AC0488EB0E94F712FA
:103810009093AF048093AE048AEB0E94F7129093CA
:10382000B1048093B0048CEB0E94F7129093B30420
:103830008093B2048EEB0E94F7129093B5048093AC
:10384000B40462E0809192040E94491A80E398EFE8
:10385000AFEFBFEF8093960490939704A0939804E2
:10386000B093990460E08BE00E94491A61E08CE01B
:103870000E94491A60E08DE00E94491A60E08AE0E7
:103880000E94491A61E089E00E94491A61E086E0DD
:103890000E94491A61E089E00E94FD1961E086E01A
:1038A0000E94FD19109231061092320610923306D2
:1038B0001092340610923506109236061092370692
:1038C000109238061092390610923A0610923B0672
:1038D00010923C0610923D0610923E0610923F0652
:1038E0001092400610924106109242061092430632
:1038F00010924406109215061092160610921706A2
:10390000109218061092190610921A0610921B06B1
:1039100010921C0610921D0610921E0610921F0691
:103920001092200610922106109222061092230671
:103930001092240610922506109226061092270651
:10394000109228061092290610922A0610922B0631
:1039500010922C0610922D0610922E0610922F0611
:103960001092300688E792E00E94CE12C9E8D2E1B8
:103970000E940A012097E1F30E948912F9CF109268
:1039800000015FCF8FE994E00C949D19ADE8B4E09D
:1039900085E015968C93159785E116968C9316976E
:1039A000E9E9F1E0E4911796EC931797E5E8F1E087
:1039B000E4911896EC93189740E85EE360E070E0BD
:1039C0001D964D935D936D937C93509783E290E0A9
:1039D00090934606809345066EEA71E08FE994E085
:1039E0000C94AB19EF920F931F93CF93DF93E801E1
:1039F00047FD16C034E0042E000C550B57FF03C0E2
:103A0000519541955109E32E022F242FAE010E94BA
:103A10006B1DCE01DF91CF911F910F91EF90089513
:103A200034E1E9CFF8940C949F24BB274A3031F459
:103A3000992322F4BDE2909581959F4F0C94521DDD
:103A4000BB272A3051F4992342F4BDE2909580952A
:103A5000709561957F4F8F4F9F4F0C94301DBB2702
:103A6000FA01A62F6217710581059105330B30FB12
:103A700066F0AA27660F771F881F991FAA1FA21733
:103A800010F0A21B63953850A9F7A05DAA3308F087
:103A9000A95DA19336F7B111B1931082CA010C94BC
:103AA000A61FBB27FB015527AA27880F991FAA1F0E
:103AB000A41710F0A41B83955051B9F7A05DAA3349
:103AC00008F0A95DA193009779F7B111B193119214
:103AD000CB010C94A61FA9E0B0E0E1E7FDE10C9456
:103AE000EB206A01F22EB02E2BE3201708F44FC012
:103AF00011E0100F012F27E0AE014F5F5F4F0E94D2
:103B0000CE1EBC013981832F8970813009F441C0F8
:103B1000E1FC41C09E2D9170E0FC90E2AE2DA071C1
:103B2000832F887033FF4AC0911137C083E08F150F
:103B3000B0F5F81AA11108C0F6018F2D20E281110D
:103B400030C0CF0CD11CF12C992329F0D6019C93C5
:103B5000F60131966F01C6010396E2FE25C02EE400
:103B6000D6012C9331E411963C93119712962C9325
:103B7000FC012F2D30E221111EC08F0D911DDC01A3
:103B80001C928EEF9FEF2996ECE00C9407211CE32A
:103B9000B1CF9DE2C3CF9BE2C1CF84E0C8CFF12C6F
:103BA000C9CF21938150CBCF2EE6F601208331E699
:103BB00031832283DDCF31932150DDCF232F247039
:103BC00032FF41C091112FC023E02F1510F48F2D2B
:103BD000821BA11108C0F601282F30E2211125C057
:103BE000C80ED11C80E0992331F0F6019083960134
:103BF0002F5F3F4F690196012D5F3F4FE2FE18C0D6
:103C000099E4D6019C939EE411969C93119796E4B7
:103C100012969C93F901982F40E2911111C0280F40
:103C2000311DD901ADCF24E0D0CF31932150D6CF73
:103C300099E6F60190839EE6918396E69283EACF19
:103C400041939150EACF41E050E0911102C040E031
:103C500050E0161617060CF075C0FB013196E40F04
:103C6000F51FBB2009F471C04B2D50E04F5F5F4F33
:103C70004E0F5F1FEF2DF0E04E175F0714F42F2D4E
:103C8000241B8E2D887141F4F601822F40E28111B0
:103C90005FC0C20ED11C20E0992329F0F601908369
:103CA000C60101966C01A11108C0F601822F90E3B4
:103CB000811151C0C20ED11C20E0012F060F9A8144
:103CC000A32FA071AA2E34FF03C0913309F4015031
:103CD00010160CF043C0093008F008E0AB0177FF84
:103CE00002C040E050E0FB013196E41BF50BA1E07F
:103CF000B0E0AC0FBD1FEA0FFB1F3EE24B01801A84
:103D000091080B2D10E01195019511094F3FBFEF60
:103D10005B0721F4D6013C9311966D01641775077A
:103D2000FCF084169506E4F48081415051093196E7
:103D3000D60111967D0140175107A4F0D6018C934E
:103D40006701E4CFE1E0F0E08ACF40E050E090CFBF
:103D5000419381509CCF91938150AACF01E0BECF77
:103D600080E3E3CF6417750731F4963390F495330D
:103D700011F4AA2071F0F6018083F701822F90E2FE
:103D8000811109C0F701E20FF11D108280E090E07F
:103D9000FACE81E3F0CF91938150F2CF283008F032
:103DA00027E03327DA01990F311D87FD91600096D6
:103DB0006105710539F432602E5F3D9330E32A9539
:103DC000E1F708959F3F30F080387105610509F0F3
:103DD0003C5F3C5F3D93913008F08068911DDF931C
:103DE000CF931F930F93FF92EF92192F987F969581
:103DF000E92F96959695E90FFF27EE53FF4F9927E8
:103E00003327EE24FF24A701E701059008940794C7
:103E100028F4360FE71EF81E491F511D660F771F45
:103E2000881F991F0694A1F70590079428F4E70EC0
:103E3000F81E491F561FC11D770F881F991F661F47
:103E40000694A1F70590079428F4F80E491F561F11
:103E5000C71FD11D880F991F661F771F0694A1F7F2
:103E60000590079420F4490F561FC71FD81F990FBC
:103E7000661F771F881F0694A9F784911095177005
:103E800041F0D695C79557954795F794E7941A95BD
:103E9000C1F7E8E6F0E068941590159135916591C9
:103EA000959105907FE27395E118F10A430B560B4B
:103EB000C90BD009C0F7E10CF11E431F561FC91FE3
:103EC000D01D7EF4703311F48A95E6CFE89401504A
:103ED00030F0080F0AF40027021708F4202F23956A
:103EE000022F7A3328F079E37D932A95E9F710C001
:103EF0007D932A9589F6069497956795379517953A
:103F00001794E118F10A430B560BC90BD00998F02E
:103F100023957E9173957A3308F070E37C93201398
:103F2000B8F77E9170617D9330F0839571E37D9356
:103F300070E32A95E1F71124EF90FF900F911F9104
:103F4000CF91DF91992787FD90950895DC01FC01C1
:103F5000672F71917723E1F7329704C07C916D93BD
:103F600070836291AE17BF07C8F308950E94F81FCF
:103F700008F481E00895E89409C097FB3EF4909519
:103F80008095709561957F4F8F4F9F4F9923A9F032
:103F9000F92F96E9BB279395F695879577956795C1
:103FA000B795F111F8CFFAF4BB0F11F460FF1BC005
:103FB0006F5F7F4F8F4F9F4F16C0882311F096E998
:103FC00011C0772321F09EE8872F762F05C0662346
:103FD00071F096E8862F70E060E02AF09A95660FFF
:103FE000771F881FDAF7880F9695879597F90895B8
:103FF000990F0008550FAA0BE0E8FEEF16161706FA
:10400000E807F907C0F012161306E407F50798F061
:10401000621B730B840B950B39F40A2661F0232B7A
:10402000242B252B21F408950A2609F4A140A695F6
:104030008FEF811D811D08950E942F200C94A020D8
:104040000E94922038F00E94992020F0952311F0D0
:104050000C9489200C948F2011240C94D4200E945D
:10406000B12070F3959FC1F3950F50E0551F629FEB
:10407000F001729FBB27F00DB11D639FAA27F00DC1
:10408000B11DAA1F649F6627B00DA11D661F829FE8
:104090002227B00DA11D621F739FB00DA11D621FCD
:1040A000839FA00D611D221F749F3327A00D611DEA
:1040B000231F849F600D211D822F762F6A2F1124CC
:1040C0009F5750409AF0F1F088234AF0EE0FFF1FFF
:1040D000BB1F661F771F881F91505040A9F79E3F56
:1040E000510580F00C9489200C94D4205F3FE4F3B8
:1040F000983ED4F3869577956795B795F795E795AC
:104100009F5FC1F7FE2B880F911D9695879597F9B4
:10411000089597F99F6780E870E060E008959FEF49
:1041200080EC089500240A9416161706180609064E
:10413000089500240A94121613061406050608951D
:10414000092E0394000C11F4882352F0BB0F40F4A5
:10415000BF2B11F460FF04C06F5F7F4F8F4F9F4FE5
:10416000089557FD9058440F551F59F05F3F71F067
:104170004795880F97FB991F61F09F3F79F08795CE
:104180000895121613061406551FF2CF4695F1DF57
:1041900008C0161617061806991FF1CF86957105E7
:1041A000610508940895E894BB2766277727CB011B
:1041B00097F908950E941C21A59F900DB49F900D22
:1041C000A49F800D911D112408952F923F924F922C
:1041D0005F926F927F928F929F92AF92BF92CF9297
:1041E000DF92EF92FF920F931F93CF93DF93CDB7A0
:1041F000DEB7CA1BDB0B0FB6F894DEBF0FBECDBF18
:1042000009942A88398848885F846E847D848C84E8
:104210009B84AA84B984C884DF80EE80FD800C81F1
:104220001B81AA81B981CE0FD11D0FB6F894DEBFD4
:104230000FBECDBFED010895A29FB001B39FC00195
:10424000A39F700D811D1124911DB29F700D811DC2
:104250001124911D08950F931F93CF93DF93823004
:10426000910510F482E090E0E0915306F09154063D
:1042700020E030E0A0E0B0E0309799F4211531055E
:1042800009F447C0281B390B24303105C0F58A8159
:104290009B816115710571F1FB0193838283FE019E
:1042A00011C0408151810281138148175907F8F0EC
:1042B0004817590799F4109761F012960C931297CA
:1042C00013961C933296CF01DF91CF911F910F91DE
:1042D00008950093530610935406F4CF2115310529
:1042E00019F04217530718F49A01BD01EF01DF01DD
:1042F000F801C2CF9093540680935306D0CFFE01AD
:10430000E20FF31F8193919322503109398328835F
:10431000DACF2091510630915206232B41F420919F
:1043200003013091040130935206209351062091ED
:104330000101309102012115310541F42DB73EB73D
:104340004091050150910601241B350BE091510667
:10435000F0915206E217F307A0F42E1B3F0B28172B
:10436000390778F0AC014E5F5F4F2417350748F0EE
:104370004E0F5F1F509352064093510681939193C5
:10438000A2CFE0E0F0E09FCFCF93DF930097D1F092
:10439000FC01329713821282A0915306B091540609
:1043A000109799F420813181820F931F209151063B
:1043B000309152062817390709F066C0F09352066B
:1043C000E0935106DF91CF910895ED0120E030E0B8
:1043D000CE17DF0708F03FC04A815B819E0141157F
:1043E0005105B9F5E901FB83EA8349915991C40F5D
:1043F000D51FEC17FD0761F4808191810296840F2F
:10440000951FE90199838883828193819B838A83A5
:10441000E0E0F0E012968D919C9113970097C9F51A
:104420002D913C911197CD010296820F931F2091FF
:104430005106309152062817390721F6309761F559
:104440001092540610925306B0935206A093510650
:10445000B9CFEA01BDCFD383C28340815181840F9C
:10446000951FC817D90761F44E5F5F4F8881998106
:10447000480F591F518340838A819B819383828394
:104480002115310509F0AECFF0935406E0935306A1
:1044900099CFFD01DC01BECF13821282D5CFA0E0FF
:1044A000B0E0E5E5F2E20C94E7208C01009751F4CE
:1044B000CB010E942B218C01C801CDB7DEB7E0E112
:1044C0000C940321FC01E60FF71F9C0122503109D7
:1044D000E217F30708F4A2C0D901CD91DC9111973E
:1044E000C617D70798F0C530D10530F3CE01049731
:1044F0008617970708F3C61BD70B2297C193D19352
:104500006D937C93CF010E94C421D6CF5B01AC1A7E
:10451000BD0A4C018C0E9D1EA0915306B09154060D
:10452000E12CF12C412C512C109731F58091510642
:10453000909152068816990609F061C0E616F706B2
:1045400008F05DC08091010190910201009741F453
:104550008DB79EB74091050150910601841B950BC4
:10456000E817F90708F05AC0F0935206E093510695
:10457000F90171836083A0CF8D919C911197129660
:104580006C90129713967C901397A815B90581F536
:104590006C0142E0C40ED11CCA14DB0448F1DC01FA
:1045A000AA19BB097D0142E0E40EF11C45E0E416C6
:1045B000F10490F062827382B183A083D9016D937C
:1045C0007C933F014114510471F0D20112966C9218
:1045D000129713967C9270CF22968C0F9D1FF90133
:1045E00091838083EFCF609253067092540664CF1C
:1045F000E816F90608F47C012D01D30195CFCB0113
:104600000E942B217C01009749F0AE01B8010E9465
:104610001123C8010E94C42187014ECF00E010E0A1
:104620004BCFFB01DC0102C001900D924150504084
:10463000D8F70895FB01DC0101900D920020E1F70D
:1046400008955058BB27AA270E9439230C94A02014
:104650000E94922038F00E94992020F039F49F3F68
:1046600019F426F40C948F200EF4E095E7FB0C94DB
:104670008920E92F0E94B12058F3BA176207730707
:104680008407950720F079F4A6F50C94D3200EF456
:10469000E0950B2EBA2FA02D0B01B90190010C0152
:1046A000CA01A0011124FF27591B99F0593F50F46A
:1046B000503E68F11A16F040A22F232F342F4427C2
:1046C000585FF3CF469537952795A795F0405395BA
:1046D000C9F77EF41F16BA0B620B730B840BBAF08A
:1046E0009150A1F0FF0FBB1F661F771F881FC2F7F5
:1046F0000EC0BA0F621F731F841F48F48795779509
:104700006795B795F7959E3F08F0B0CF9395880FC2
:1047100008F09927EE0F9795879508950E94A22398
:104720000C94A0200E94992058F00E94922040F002
:1047300029F45F3F29F00C94892051110C94D42066
:104740000C948F200E94B12068F39923B1F3552374
:1047500091F3951B550BBB27AA2762177307840794
:1047600038F09F5F5F4F220F331F441FAA1FA9F32A
:1047700035D00E2E3AF0E0E832D091505040E69518
:10478000001CCAF72BD0FE2F29D0660F771F881F79
:10479000BB1F261737074807AB07B0E809F0BB0B6C
:1047A000802DBF01FF2793585F4F3AF09E3F510580
:1047B00078F00C9489200C94D4205F3FE4F3983E69
:1047C000D4F3869577956795B795F7959F5FC9F769
:1047D000880F911D9695879597F90895E1E0660FEA
:1047E000771F881FBB1F621773078407BA0720F063
:1047F000621B730B840BBA0BEE1F88F7E0950895CC
:104800000E9407246894B1110C94D42008950E944A
:10481000B92088F09F5798F0B92F9927B751B0F079
:10482000E1F0660F771F881F991F1AF0BA95C9F734
:1048300014C0B13091F00E94D320B1E008950C94DF
:10484000D320672F782F8827B85F39F0B93FCCF392
:10485000869577956795B395D9F73EF490958095B1
:10486000709561957F4F8F4F9F4F08950E94F81F5D
:1048700008F48FEF08950E94F81F880B990B089594
:10488000DB018F939F930E94DA20BF91AF91A29F8B
:10489000800D911DA39F900DB29F900D112408953E
:1048A000A1E21A2EAA1BBB1BFD010DC0AA1FBB1F34
:1048B000EE1FFF1FA217B307E407F50720F0A21BA6
:1048C000B30BE40BF50B661F771F881F991F1A9413
:1048D00069F760957095809590959B01AC01BD013D
:1048E000CF010895052E97FB1EF400940E948924A1
:1048F00057FD07D00E94502407FC03D04EF40C94BF
:10490000892450954095309521953F4F4F4F5F4FEB
:10491000089590958095709561957F4F8F4F9F4F2B
:104920000895B7FF0C94DA200E94DA20821B930BC3
:104930000895EE0FFF1F0590F491E02D099410E00B
:10494000CFEDD0E004C0FE010E9499242196C03E24
:08495000D107C9F7F894FFCF6D
:1049580001000055062000000000002A12FD11F594
:1049680011DF11CD11CC1100000000271790177D21
:10497800125B126F126E1720564D51323A002056B4
:104988004D51313A004D51563A00204D43544D5047
:104998003A00204D435643433A002056494E3A00C8
:1049A800204C55583A002044544D503A0020444871
:1049B800554D3A002042544D503A0020425052453D
:1049C8003A002044513A00205244593A313B0A00F7
:1049D800205244593A303B0A0044656275673A00F0
:1049E800207264746D705B005D5B005D3D00206447
:1049F800746D705B00206C746D705B000D0A006C48
:104A08006F6F705F693A2000726E643A20000A5333
:104A180074617475733A004D515643433A20004D02
:104A2800435643433A20004D51323A20004D51310C
:104A38003A20004D43544D503A200056494E3A20F2
:104A4800004448545F48554D3A20004C55583A2088
:104A580000424D505F544D503A20004448545F5432
:104A68004D503A2000424D505F5052453A20007256
:104A7800756E643A20005363616E6E696E672E2E00
:104A88002E00493243206174203078003000202005
:104A9800210055206572726F722061742030780091
:104AA8004E6F2049324320646576696365732066DA
:104AB8006F756E640A00646F6E650A00696E660041
:104AC8006F7666006E616E0053544152544F4B3AF4
:044AD800313B00006E
:00000001FF
